{"abi":[{"type":"constructor","inputs":[{"name":"_settlement","type":"address","internalType":"address"}],"stateMutability":"nonpayable"},{"type":"function","name":"cabinet","inputs":[{"name":"","type":"address","internalType":"address"},{"name":"","type":"bytes32","internalType":"bytes32"}],"outputs":[{"name":"","type":"bytes32","internalType":"bytes32"}],"stateMutability":"view"},{"type":"function","name":"create","inputs":[{"name":"params","type":"tuple","internalType":"struct IConditionalOrder.ConditionalOrderParams","components":[{"name":"handler","type":"address","internalType":"contract IConditionalOrder"},{"name":"salt","type":"bytes32","internalType":"bytes32"},{"name":"staticInput","type":"bytes","internalType":"bytes"}]},{"name":"dispatch","type":"bool","internalType":"bool"}],"outputs":[],"stateMutability":"nonpayable"},{"type":"function","name":"createWithContext","inputs":[{"name":"params","type":"tuple","internalType":"struct IConditionalOrder.ConditionalOrderParams","components":[{"name":"handler","type":"address","internalType":"contract IConditionalOrder"},{"name":"salt","type":"bytes32","internalType":"bytes32"},{"name":"staticInput","type":"bytes","internalType":"bytes"}]},{"name":"factory","type":"address","internalType":"contract IValueFactory"},{"name":"data","type":"bytes","internalType":"bytes"},{"name":"dispatch","type":"bool","internalType":"bool"}],"outputs":[],"stateMutability":"nonpayable"},{"type":"function","name":"domainSeparator","inputs":[],"outputs":[{"name":"","type":"bytes32","internalType":"bytes32"}],"stateMutability":"view"},{"type":"function","name":"getTradeableOrderWithSignature","inputs":[{"name":"owner","type":"address","internalType":"address"},{"name":"params","type":"tuple","internalType":"struct IConditionalOrder.ConditionalOrderParams","components":[{"name":"handler","type":"address","internalType":"contract IConditionalOrder"},{"name":"salt","type":"bytes32","internalType":"bytes32"},{"name":"staticInput","type":"bytes","internalType":"bytes"}]},{"name":"offchainInput","type":"bytes","internalType":"bytes"},{"name":"proof","type":"bytes32[]","internalType":"bytes32[]"}],"outputs":[{"name":"order","type":"tuple","internalType":"struct GPv2Order.Data","components":[{"name":"sellToken","type":"address","internalType":"contract IERC20"},{"name":"buyToken","type":"address","internalType":"contract IERC20"},{"name":"receiver","type":"address","internalType":"address"},{"name":"sellAmount","type":"uint256","internalType":"uint256"},{"name":"buyAmount","type":"uint256","internalType":"uint256"},{"name":"validTo","type":"uint32","internalType":"uint32"},{"name":"appData","type":"bytes32","internalType":"bytes32"},{"name":"feeAmount","type":"uint256","internalType":"uint256"},{"name":"kind","type":"bytes32","internalType":"bytes32"},{"name":"partiallyFillable","type":"bool","internalType":"bool"},{"name":"sellTokenBalance","type":"bytes32","internalType":"bytes32"},{"name":"buyTokenBalance","type":"bytes32","internalType":"bytes32"}]},{"name":"signature","type":"bytes","internalType":"bytes"}],"stateMutability":"view"},{"type":"function","name":"hash","inputs":[{"name":"params","type":"tuple","internalType":"struct IConditionalOrder.ConditionalOrderParams","components":[{"name":"handler","type":"address","internalType":"contract IConditionalOrder"},{"name":"salt","type":"bytes32","internalType":"bytes32"},{"name":"staticInput","type":"bytes","internalType":"bytes"}]}],"outputs":[{"name":"","type":"bytes32","internalType":"bytes32"}],"stateMutability":"pure"},{"type":"function","name":"isValidSafeSignature","inputs":[{"name":"safe","type":"address","internalType":"contract Safe"},{"name":"sender","type":"address","internalType":"address"},{"name":"_hash","type":"bytes32","internalType":"bytes32"},{"name":"_domainSeparator","type":"bytes32","internalType":"bytes32"},{"name":"","type":"bytes32","internalType":"bytes32"},{"name":"encodeData","type":"bytes","internalType":"bytes"},{"name":"payload","type":"bytes","internalType":"bytes"}],"outputs":[{"name":"magic","type":"bytes4","internalType":"bytes4"}],"stateMutability":"view"},{"type":"function","name":"remove","inputs":[{"name":"singleOrderHash","type":"bytes32","internalType":"bytes32"}],"outputs":[],"stateMutability":"nonpayable"},{"type":"function","name":"roots","inputs":[{"name":"","type":"address","internalType":"address"}],"outputs":[{"name":"","type":"bytes32","internalType":"bytes32"}],"stateMutability":"view"},{"type":"function","name":"setRoot","inputs":[{"name":"root","type":"bytes32","internalType":"bytes32"},{"name":"proof","type":"tuple","internalType":"struct ComposableCoW.Proof","components":[{"name":"location","type":"uint256","internalType":"uint256"},{"name":"data","type":"bytes","internalType":"bytes"}]}],"outputs":[],"stateMutability":"nonpayable"},{"type":"function","name":"setRootWithContext","inputs":[{"name":"root","type":"bytes32","internalType":"bytes32"},{"name":"proof","type":"tuple","internalType":"struct ComposableCoW.Proof","components":[{"name":"location","type":"uint256","internalType":"uint256"},{"name":"data","type":"bytes","internalType":"bytes"}]},{"name":"factory","type":"address","internalType":"contract IValueFactory"},{"name":"data","type":"bytes","internalType":"bytes"}],"outputs":[],"stateMutability":"nonpayable"},{"type":"function","name":"setSwapGuard","inputs":[{"name":"swapGuard","type":"address","internalType":"contract ISwapGuard"}],"outputs":[],"stateMutability":"nonpayable"},{"type":"function","name":"singleOrders","inputs":[{"name":"","type":"address","internalType":"address"},{"name":"","type":"bytes32","internalType":"bytes32"}],"outputs":[{"name":"","type":"bool","internalType":"bool"}],"stateMutability":"view"},{"type":"function","name":"swapGuards","inputs":[{"name":"","type":"address","internalType":"address"}],"outputs":[{"name":"","type":"address","internalType":"contract ISwapGuard"}],"stateMutability":"view"},{"type":"event","name":"ConditionalOrderCreated","inputs":[{"name":"owner","type":"address","indexed":true,"internalType":"address"},{"name":"params","type":"tuple","indexed":false,"internalType":"struct IConditionalOrder.ConditionalOrderParams","components":[{"name":"handler","type":"address","internalType":"contract IConditionalOrder"},{"name":"salt","type":"bytes32","internalType":"bytes32"},{"name":"staticInput","type":"bytes","internalType":"bytes"}]}],"anonymous":false},{"type":"event","name":"MerkleRootSet","inputs":[{"name":"owner","type":"address","indexed":true,"internalType":"address"},{"name":"root","type":"bytes32","indexed":false,"internalType":"bytes32"},{"name":"proof","type":"tuple","indexed":false,"internalType":"struct ComposableCoW.Proof","components":[{"name":"location","type":"uint256","internalType":"uint256"},{"name":"data","type":"bytes","internalType":"bytes"}]}],"anonymous":false},{"type":"event","name":"SwapGuardSet","inputs":[{"name":"owner","type":"address","indexed":true,"internalType":"address"},{"name":"swapGuard","type":"address","indexed":false,"internalType":"contract ISwapGuard"}],"anonymous":false},{"type":"error","name":"InterfaceNotSupported","inputs":[]},{"type":"error","name":"InvalidFallbackHandler","inputs":[]},{"type":"error","name":"InvalidHandler","inputs":[]},{"type":"error","name":"ProofNotAuthed","inputs":[]},{"type":"error","name":"SingleOrderNotAuthed","inputs":[]},{"type":"error","name":"SwapGuardRestricted","inputs":[]}],"bytecode":{"object":"0x60a060405234801561000f575f80fd5b506040516120f43803806120f483398101604081905261002e91610097565b806001600160a01b031663f698da256040518163ffffffff1660e01b8152600401602060405180830381865afa15801561006a573d5f803e3d5ffd5b505050506040513d601f19601f8201168201806040525081019061008e91906100c4565b608052506100db565b5f602082840312156100a7575f80fd5b81516001600160a01b03811681146100bd575f80fd5b9392505050565b5f602082840312156100d4575f80fd5b5051919050565b608051611ffa6100fa5f395f818161031d01526109120152611ffa5ff3fe608060405234801561000f575f80fd5b50600436106100e5575f3560e01c8063595001b2116100885780638f7984ed116100635780638f7984ed1461028357806395bc267314610296578063a4546876146102f9578063f698da2514610318575f80fd5b8063595001b2146101d95780636108c532146102335780636bfae1ca14610270575f80fd5b806326e0a196116100c357806326e0a1961461014e57806353f00b141461016f5780635500079d146101b357806357f1d41a146101c6575f80fd5b80630d0d9800146100e95780631ab0dd9d146100fe5780631c7662c814610111575b5f80fd5b6100fc6100f73660046111cb565b61033f565b005b6100fc61010c366004611268565b61040e565b61013b61011f3660046112b7565b600360209081525f928352604080842090915290825290205481565b6040519081526020015b60405180910390f35b61016161015c3660046112e1565b61045d565b6040516101459291906114dc565b61018261017d3660046114fd565b610ae3565b6040517fffffffff000000000000000000000000000000000000000000000000000000009091168152602001610145565b61013b6101c136600461175e565b610c1c565b6100fc6101d4366004611798565b610c4b565b61020e6101e736600461181b565b60026020525f908152604090205473ffffffffffffffffffffffffffffffffffffffff1681565b60405173ffffffffffffffffffffffffffffffffffffffff9091168152602001610145565b6102606102413660046112b7565b600160209081525f928352604080842090915290825290205460ff1681565b6040519015158152602001610145565b6100fc61027e366004611836565b610d09565b6100fc61029136600461181b565b610e0e565b6100fc6102a4366004611885565b335f818152600160209081526040808320858452825280832080547fffffffffffffffffffffffffffffffffffffffffffffffffffffffffffffff001690559282526003815282822093825292909252812055565b61013b61030736600461181b565b5f6020819052908152604090205481565b61013b7f000000000000000000000000000000000000000000000000000000000000000081565b6103498582610d09565b6040517fb6576bdf00000000000000000000000000000000000000000000000000000000815273ffffffffffffffffffffffffffffffffffffffff85169063b6576bdf9061039d90869086906004016118e3565b602060405180830381865afa1580156103b8573d5f803e3d5ffd5b505050506040513d601f19601f820116820180604052508101906103dc91906118f6565b335f908152600360205260408120906103f76101c18961190d565b815260208101919091526040015f20555050505050565b335f8181526020819052604090819020849055517f58662f46b4a87d0f96d929b24c37fe25c55d52c0025d0b2bec3936534cc31e57906104519085908590611978565b60405180910390a25050565b60408051610180810182525f80825260208201819052918101829052606081018290526080810182905260a0810182905260c0810182905260e0810182905261010081018290526101208101829052610140810182905261016081019190915260605f610505896104cd8a61190d565b8787808060200260200160405190810160405280939291908181526020018383602002808284375f92019190915250610e9492505050565b9050610514602089018961181b565b6040517f01ffc9a70000000000000000000000000000000000000000000000000000000081527fb8296fc400000000000000000000000000000000000000000000000000000000600482015273ffffffffffffffffffffffffffffffffffffffff91909116906301ffc9a790602401602060405180830381865afa9250505080156105da575060408051601f3d9081017fffffffffffffffffffffffffffffffffffffffffffffffffffffffffffffffe01682019092526105d7918101906119c1565b60015b610610576040517f2c7ca6d700000000000000000000000000000000000000000000000000000000815260040160405180910390fd5b80610647576040517f2c7ca6d700000000000000000000000000000000000000000000000000000000815260040160405180910390fd5b50610655602089018961181b565b73ffffffffffffffffffffffffffffffffffffffff1663b8296fc48a338461068060408e018e6119dc565b8d8d6040518863ffffffff1660e01b81526004016106a49796959493929190611a3d565b61018060405180830381865afa1580156106c0573d5f803e3d5ffd5b505050506040513d601f19601f820116820180604052508101906106e49190611ac4565b925061073189826106f48b61190d565b8a8a8080601f0160208091040260200160405190810160405280939291908181526020018383808284375f920191909152508a9250610fd0915050565b610767576040517f03fc2a7e00000000000000000000000000000000000000000000000000000000815260040160405180910390fd5b6040517f01ffc9a70000000000000000000000000000000000000000000000000000000081527f62af8dc200000000000000000000000000000000000000000000000000000000600482015273ffffffffffffffffffffffffffffffffffffffff8a16906301ffc9a790602401602060405180830381865afa92505050801561082b575060408051601f3d9081017fffffffffffffffffffffffffffffffffffffffffffffffffffffffffffffffe0168201909252610828918101906119c1565b60015b6108d95760408051608060208702808301820190935260608201878152869383928a918a918291908601908490808284375f920191909152505050908252506020016108768b61190d565b815260200189898080601f0160208091040260200160405190810160405280939291908181526020018383808284375f9201919091525050509152506040516108c3929190602001611c2f565b6040516020818303038152906040529150610ad7565b80610910576040517f79ac63cd00000000000000000000000000000000000000000000000000000000815260040160405180910390fd5b7f00000000000000000000000000000000000000000000000000000000000000007fd5a25ba2e97094ad7d83dc28a6572da797d6b3e7fc6663bd93efb789fc17e489856040516020016109639190611c50565b604080517fffffffffffffffffffffffffffffffffffffffffffffffffffffffffffffffe0818403018152608060208b028085018201909352606084018b81529193928392918d918d918291908601908490808284375f920191909152505050908252506020016109d38e61190d565b81526020018c8c8080601f0160208091040260200160405190810160405280939291908181526020018383808284375f920191909152505050915250604051610a1f9190602001611c5f565b604080517fffffffffffffffffffffffffffffffffffffffffffffffffffffffffffffffe081840301815290829052610a5d94939291602401611c71565b604080517fffffffffffffffffffffffffffffffffffffffffffffffffffffffffffffffe08184030181529190526020810180517bffffffffffffffffffffffffffffffffffffffffffffffffffffffff167f5fd7e97d000000000000000000000000000000000000000000000000000000001790529250505b50965096945050505050565b5f80610af183850185611cac565b90505f610b068c8360200151845f0151610e94565b90505f610b1587890189611dc5565b9050610b2c8d838560200151866040015185610fd0565b610b62576040517f03fc2a7e00000000000000000000000000000000000000000000000000000000815260040160405180910390fd5b82602001515f015173ffffffffffffffffffffffffffffffffffffffff166314a2a7848e8e8e8e878960200151604001518a60400151896040518963ffffffff1660e01b8152600401610bbc989796959493929190611e81565b5f6040518083038186803b158015610bd2575f80fd5b505afa158015610be4573d5f803e3d5ffd5b507f1626ba7e0000000000000000000000000000000000000000000000000000000096505050505050505b9998505050505050505050565b5f81604051602001610c2e9190611ef0565b604051602081830303815290604052805190602001209050919050565b610c55858561040e565b6040517fb6576bdf00000000000000000000000000000000000000000000000000000000815273ffffffffffffffffffffffffffffffffffffffff84169063b6576bdf90610ca990859085906004016118e3565b602060405180830381865afa158015610cc4573d5f803e3d5ffd5b505050506040513d601f19601f82011682018060405250810190610ce891906118f6565b335f9081526003602090815260408083208380529091529020555050505050565b5f610d17602084018461181b565b73ffffffffffffffffffffffffffffffffffffffff1603610d64576040517fd8f59fa500000000000000000000000000000000000000000000000000000000815260040160405180910390fd5b335f90815260016020819052604082209091610d826101c18661190d565b815260208101919091526040015f2080547fffffffffffffffffffffffffffffffffffffffffffffffffffffffffffffff00169115159190911790558015610e0a573373ffffffffffffffffffffffffffffffffffffffff167f2cceac5555b0ca45a3744ced542f54b56ad2eb45e521962372eef212a2cbf361836040516104519190611f02565b5050565b335f8181526002602090815260409182902080547fffffffffffffffffffffffff00000000000000000000000000000000000000001673ffffffffffffffffffffffffffffffffffffffff861690811790915591519182527f41f583e2d25b3921afe66987b63b0b5e4cf2acbbbed4a477fd19a22180f3f859910160405180910390a250565b5f81515f14610f54575f610ea784610c1c565b604051602001610eb991815260200190565b604051602081830303815290604052805190602001209050610f18835f808873ffffffffffffffffffffffffffffffffffffffff1673ffffffffffffffffffffffffffffffffffffffff1681526020019081526020015f2054836110ad565b610f4e576040517f4a82146400000000000000000000000000000000000000000000000000000000815260040160405180910390fd5b50610fc9565b610f5d83610c1c565b73ffffffffffffffffffffffffffffffffffffffff85165f90815260016020908152604080832084845290915290205490915060ff16610fc9576040517f7a93323400000000000000000000000000000000000000000000000000000000815260040160405180910390fd5b9392505050565b73ffffffffffffffffffffffffffffffffffffffff8086165f90815260026020526040812054909116801561109e576040517ff9ae35a200000000000000000000000000000000000000000000000000000000815273ffffffffffffffffffffffffffffffffffffffff82169063f9ae35a2906110579086908a908a908a90600401611f5a565b602060405180830381865afa158015611072573d5f803e3d5ffd5b505050506040513d601f19601f8201168201806040525081019061109691906119c1565b9150506110a4565b60019150505b95945050505050565b5f826110b985846110c2565b14949350505050565b5f81815b84518110156110fc576110f2828683815181106110e5576110e5611f97565b6020026020010151611106565b91506001016110c6565b5090505b92915050565b5f818310611120575f828152602084905260409020610fc9565b505f9182526020526040902090565b5f6060828403121561113f575f80fd5b50919050565b73ffffffffffffffffffffffffffffffffffffffff81168114611166575f80fd5b50565b5f8083601f840112611179575f80fd5b50813567ffffffffffffffff811115611190575f80fd5b6020830191508360208285010111156111a7575f80fd5b9250929050565b8015158114611166575f80fd5b80356111c6816111ae565b919050565b5f805f805f608086880312156111df575f80fd5b853567ffffffffffffffff808211156111f6575f80fd5b61120289838a0161112f565b96506020880135915061121482611145565b90945060408701359080821115611229575f80fd5b5061123688828901611169565b909450925050606086013561124a816111ae565b809150509295509295909350565b5f6040828403121561113f575f80fd5b5f8060408385031215611279575f80fd5b82359150602083013567ffffffffffffffff811115611296575f80fd5b6112a285828601611258565b9150509250929050565b80356111c681611145565b5f80604083850312156112c8575f80fd5b82356112d381611145565b946020939093013593505050565b5f805f805f80608087890312156112f6575f80fd5b863561130181611145565b9550602087013567ffffffffffffffff8082111561131d575f80fd5b6113298a838b0161112f565b9650604089013591508082111561133e575f80fd5b61134a8a838b01611169565b90965094506060890135915080821115611362575f80fd5b818901915089601f830112611375575f80fd5b813581811115611383575f80fd5b8a60208260051b8501011115611397575f80fd5b6020830194508093505050509295509295509295565b805173ffffffffffffffffffffffffffffffffffffffff16825260208101516113ee602084018273ffffffffffffffffffffffffffffffffffffffff169052565b506040810151611416604084018273ffffffffffffffffffffffffffffffffffffffff169052565b50606081015160608301526080810151608083015260a081015161144260a084018263ffffffff169052565b5060c081015160c083015260e081015160e0830152610100808201518184015250610120808201516114778285018215159052565b5050610140818101519083015261016090810151910152565b5f81518084528060208401602086015e5f6020828601015260207fffffffffffffffffffffffffffffffffffffffffffffffffffffffffffffffe0601f83011685010191505092915050565b5f6101a06114ea83866113ad565b806101808401526110a481840185611490565b5f805f805f805f805f60e08a8c031215611515575f80fd5b893561152081611145565b985060208a013561153081611145565b975060408a0135965060608a0135955060808a0135945060a08a013567ffffffffffffffff80821115611561575f80fd5b61156d8d838e01611169565b909650945060c08c0135915080821115611585575f80fd5b506115928c828d01611169565b915080935050809150509295985092959850929598565b7f4e487b71000000000000000000000000000000000000000000000000000000005f52604160045260245ffd5b6040516060810167ffffffffffffffff811182821017156115f9576115f96115a9565b60405290565b604051610180810167ffffffffffffffff811182821017156115f9576115f96115a9565b604051601f82017fffffffffffffffffffffffffffffffffffffffffffffffffffffffffffffffe016810167ffffffffffffffff8111828210171561166a5761166a6115a9565b604052919050565b5f82601f830112611681575f80fd5b813567ffffffffffffffff81111561169b5761169b6115a9565b6116cc60207fffffffffffffffffffffffffffffffffffffffffffffffffffffffffffffffe0601f84011601611623565b8181528460208386010111156116e0575f80fd5b816020850160208301375f918101602001919091529392505050565b5f6060828403121561170c575f80fd5b6117146115d6565b9050813561172181611145565b815260208281013590820152604082013567ffffffffffffffff811115611746575f80fd5b61175284828501611672565b60408301525092915050565b5f6020828403121561176e575f80fd5b813567ffffffffffffffff811115611784575f80fd5b611790848285016116fc565b949350505050565b5f805f805f608086880312156117ac575f80fd5b85359450602086013567ffffffffffffffff808211156117ca575f80fd5b6117d689838a01611258565b9550604088013591506117e882611145565b909350606087013590808211156117fd575f80fd5b5061180a88828901611169565b969995985093965092949392505050565b5f6020828403121561182b575f80fd5b8135610fc981611145565b5f8060408385031215611847575f80fd5b823567ffffffffffffffff81111561185d575f80fd5b6118698582860161112f565b925050602083013561187a816111ae565b809150509250929050565b5f60208284031215611895575f80fd5b5035919050565b81835281816020850137505f602082840101525f60207fffffffffffffffffffffffffffffffffffffffffffffffffffffffffffffffe0601f840116840101905092915050565b602081525f61179060208301848661189c565b5f60208284031215611906575f80fd5b5051919050565b5f61110036836116fc565b5f8083357fffffffffffffffffffffffffffffffffffffffffffffffffffffffffffffffe184360301811261194b575f80fd5b830160208101925035905067ffffffffffffffff81111561196a575f80fd5b8036038213156111a7575f80fd5b82815260406020820152813560408201525f6119976020840184611918565b604060608501526119ac60808501828461189c565b9695505050505050565b80516111c6816111ae565b5f602082840312156119d1575f80fd5b8151610fc9816111ae565b5f8083357fffffffffffffffffffffffffffffffffffffffffffffffffffffffffffffffe1843603018112611a0f575f80fd5b83018035915067ffffffffffffffff821115611a29575f80fd5b6020019150368190038213156111a7575f80fd5b5f73ffffffffffffffffffffffffffffffffffffffff808a16835280891660208401525086604083015260a06060830152611a7c60a08301868861189c565b8281036080840152611a8f81858761189c565b9a9950505050505050505050565b80516111c681611145565b63ffffffff81168114611166575f80fd5b80516111c681611aa8565b5f6101808284031215611ad5575f80fd5b611add6115ff565b611ae683611a9d565b8152611af460208401611a9d565b6020820152611b0560408401611a9d565b60408201526060830151606082015260808301516080820152611b2a60a08401611ab9565b60a082015260c083015160c082015260e083015160e0820152610100808401518183015250610120611b5d8185016119b6565b908201526101408381015190820152610160928301519281019290925250919050565b73ffffffffffffffffffffffffffffffffffffffff8151168252602081015160208301525f6040820151606060408501526117906060850182611490565b8051606080845281519084018190525f91602091908201906080860190845b81811015611bf957835183529284019291840191600101611bdd565b5050602085015192508581036020870152611c148184611b80565b92505050604083015184820360408601526110a48282611490565b5f6101a0611c3d83866113ad565b806101808401526110a481840185611bbe565b610180810161110082846113ad565b602081525f610fc96020830184611bbe565b848152836020820152608060408201525f611c8f6080830185611490565b8281036060840152611ca18185611490565b979650505050505050565b5f6020808385031215611cbd575f80fd5b823567ffffffffffffffff80821115611cd4575f80fd5b9084019060608287031215611ce7575f80fd5b611cef6115d6565b823582811115611cfd575f80fd5b8301601f81018813611d0d575f80fd5b803583811115611d1f57611d1f6115a9565b8060051b611d2e878201611623565b918252828101870191878101908b841115611d47575f80fd5b938801935b83851015611d6557843582529388019390880190611d4c565b8552505050508284013582811115611d7b575f80fd5b611d87888286016116fc565b85830152506040830135935081841115611d9f575f80fd5b611dab87858501611672565b60408201529695505050505050565b80356111c681611aa8565b5f6101808284031215611dd6575f80fd5b611dde6115ff565b611de7836112ac565b8152611df5602084016112ac565b6020820152611e06604084016112ac565b60408201526060830135606082015260808301356080820152611e2b60a08401611dba565b60a082015260c083013560c082015260e083013560e0820152610100808401358183015250610120611e5e8185016111bb565b908201526101408381013590820152610160928301359281019290925250919050565b5f61026073ffffffffffffffffffffffffffffffffffffffff808c168452808b166020850152508860408401528760608401528660808401528060a0840152611ecc81840187611490565b905082810360c0840152611ee08186611490565b915050610c0f60e08301846113ad565b602081525f610fc96020830184611b80565b602081525f8235611f1281611145565b73ffffffffffffffffffffffffffffffffffffffff811660208401525060208301356040830152611f466040840184611918565b6060808501526110a460808501828461189c565b5f6101e0611f6883886113ad565b85610180840152806101a0840152611f8281840186611b80565b90508281036101c0840152611ca18185611490565b7f4e487b71000000000000000000000000000000000000000000000000000000005f52603260045260245ffdfea2646970667358221220875b798f7ff64b4972f8844fc63ebeb558835c113a62c597af6ddd5ff1775f6564736f6c63430008190033","linkReferences":{}},"methodIdentifiers":{"cabinet(address,bytes32)":"1c7662c8","create((address,bytes32,bytes),bool)":"6bfae1ca","createWithContext((address,bytes32,bytes),address,bytes,bool)":"0d0d9800","domainSeparator()":"f698da25","getTradeableOrderWithSignature(address,(address,bytes32,bytes),bytes,bytes32[])":"26e0a196","hash((address,bytes32,bytes))":"5500079d","isValidSafeSignature(address,address,bytes32,bytes32,bytes32,bytes,bytes)":"53f00b14","remove(bytes32)":"95bc2673","roots(address)":"a4546876","setRoot(bytes32,(uint256,bytes))":"1ab0dd9d","setRootWithContext(bytes32,(uint256,bytes),address,bytes)":"57f1d41a","setSwapGuard(address)":"8f7984ed","singleOrders(address,bytes32)":"6108c532","swapGuards(address)":"595001b2"},"id":57}