{"abi":[{"type":"function","name":"MAX_ORDER_DURATION","inputs":[],"outputs":[{"name":"","type":"uint32","internalType":"uint32"}],"stateMutability":"view"},{"type":"function","name":"factory","inputs":[],"outputs":[{"name":"","type":"address","internalType":"address"}],"stateMutability":"view"},{"type":"function","name":"getSnapshot","inputs":[{"name":"amm","type":"address","internalType":"address"}],"outputs":[{"name":"","type":"bytes","internalType":"bytes"}],"stateMutability":"view"},{"type":"function","name":"hashHelper","inputs":[{"name":"_order","type":"tuple","internalType":"struct GPv2Order.Data","components":[{"name":"sellToken","type":"address","internalType":"contract IERC20"},{"name":"buyToken","type":"address","internalType":"contract IERC20"},{"name":"receiver","type":"address","internalType":"address"},{"name":"sellAmount","type":"uint256","internalType":"uint256"},{"name":"buyAmount","type":"uint256","internalType":"uint256"},{"name":"validTo","type":"uint32","internalType":"uint32"},{"name":"appData","type":"bytes32","internalType":"bytes32"},{"name":"feeAmount","type":"uint256","internalType":"uint256"},{"name":"kind","type":"bytes32","internalType":"bytes32"},{"name":"partiallyFillable","type":"bool","internalType":"bool"},{"name":"sellTokenBalance","type":"bytes32","internalType":"bytes32"},{"name":"buyTokenBalance","type":"bytes32","internalType":"bytes32"}]}],"outputs":[{"name":"","type":"bytes32","internalType":"bytes32"}],"stateMutability":"view"},{"type":"function","name":"isCanonical","inputs":[{"name":"pool","type":"address","internalType":"address"}],"outputs":[{"name":"","type":"bool","internalType":"bool"}],"stateMutability":"view"},{"type":"function","name":"isLegacy","inputs":[{"name":"amm","type":"address","internalType":"address"}],"outputs":[{"name":"","type":"bool","internalType":"bool"}],"stateMutability":"view"},{"type":"function","name":"isLegacyEnabled","inputs":[{"name":"amm","type":"address","internalType":"address"}],"outputs":[{"name":"success","type":"bool","internalType":"bool"}],"stateMutability":"view"},{"type":"function","name":"order","inputs":[{"name":"pool","type":"address","internalType":"address"},{"name":"prices","type":"uint256[]","internalType":"uint256[]"}],"outputs":[{"name":"","type":"tuple","internalType":"struct GPv2Order.Data","components":[{"name":"sellToken","type":"address","internalType":"contract IERC20"},{"name":"buyToken","type":"address","internalType":"contract IERC20"},{"name":"receiver","type":"address","internalType":"address"},{"name":"sellAmount","type":"uint256","internalType":"uint256"},{"name":"buyAmount","type":"uint256","internalType":"uint256"},{"name":"validTo","type":"uint32","internalType":"uint32"},{"name":"appData","type":"bytes32","internalType":"bytes32"},{"name":"feeAmount","type":"uint256","internalType":"uint256"},{"name":"kind","type":"bytes32","internalType":"bytes32"},{"name":"partiallyFillable","type":"bool","internalType":"bool"},{"name":"sellTokenBalance","type":"bytes32","internalType":"bytes32"},{"name":"buyTokenBalance","type":"bytes32","internalType":"bytes32"}]},{"name":"","type":"tuple[]","internalType":"struct GPv2Interaction.Data[]","components":[{"name":"target","type":"address","internalType":"address"},{"name":"value","type":"uint256","internalType":"uint256"},{"name":"callData","type":"bytes","internalType":"bytes"}]},{"name":"","type":"bytes","internalType":"bytes"}],"stateMutability":"view"},{"type":"function","name":"tokens","inputs":[{"name":"pool","type":"address","internalType":"address"}],"outputs":[{"name":"_tokens","type":"address[]","internalType":"address[]"}],"stateMutability":"view"},{"type":"error","name":"InvalidArrayLength","inputs":[]},{"type":"error","name":"NoOrder","inputs":[]},{"type":"error","name":"PoolDoesNotExist","inputs":[]},{"type":"error","name":"PoolIsClosed","inputs":[]},{"type":"error","name":"PoolIsPaused","inputs":[]}],"bytecode":{"object":"0x6080604052348015600e575f80fd5b50613a9c8061001c5f395ff3fe608060405234801561000f575f80fd5b506004361061009f575f3560e01c80632aec79a011610072578063b754bdfa11610058578063b754bdfa1461015f578063c45a015514610172578063e48603391461019e575f80fd5b80632aec79a01461012e578063981a160b14610141575f80fd5b806310029daa146100a357806321570256146100cb57806324c09ebc146100eb57806327242c9b1461010c575b5f80fd5b6100b66100b1366004611d8f565b6101be565b60405190151581526020015b60405180910390f35b6100de6100d9366004611d8f565b6105c0565b6040516100c29190611df6565b6100fe6100f9366004611ead565b6109f1565b6040519081526020016100c2565b61011f61011a366004611f69565b610b05565b6040516100c2939291906120cd565b6100b661013c366004611d8f565b61135a565b61014a61012c81565b60405163ffffffff90911681526020016100c2565b6100b661016d366004611d8f565b61136d565b6101795f81565b60405173ffffffffffffffffffffffffffffffffffffffff90911681526020016100c2565b6101b16101ac366004611d8f565b61141b565b6040516100c291906121aa565b6040517f5624b25b0000000000000000000000000000000000000000000000000000000081527f6c9a6c4a39284e37ed1cf53d337577d14212a4870fb976a4366c693b939918d56004820152600160248201525f90819073ffffffffffffffffffffffffffffffffffffffff841690635624b25b906044015f60405180830381865afa158015610250573d5f803e3d5ffd5b505050506040513d5f823e601f3d9081017fffffffffffffffffffffffffffffffffffffffffffffffffffffffffffffffe016820160405261029591908101906122aa565b8060200190518101906102a891906122dc565b73ffffffffffffffffffffffffffffffffffffffff8116732f55e8b20d0b9fefa187aa7d00b6cbe563605bf51492509050818015610466575073fdafc9d1902f4e0b84f65f49f244b32b31013b7473ffffffffffffffffffffffffffffffffffffffff16732f55e8b20d0b9fefa187aa7d00b6cbe563605bf573ffffffffffffffffffffffffffffffffffffffff166351cad5ee85739008d19f58aabd9ed0d60971565aa8510560ab4173ffffffffffffffffffffffffffffffffffffffff1663f698da256040518163ffffffff1660e01b8152600401602060405180830381865afa15801561039a573d5f803e3d5ffd5b505050506040513d601f19601f820116820180604052508101906103be91906122f7565b6040517fffffffff0000000000000000000000000000000000000000000000000000000060e085901b16815273ffffffffffffffffffffffffffffffffffffffff90921660048301526024820152604401602060405180830381865afa15801561042a573d5f803e3d5ffd5b505050506040513d601f19601f8201168201806040525081019061044e91906122dc565b73ffffffffffffffffffffffffffffffffffffffff16145b91505f610472846105c0565b806020019051810190610485919061230e565b90508280156105b857506040517f5500079d00000000000000000000000000000000000000000000000000000000815273fdafc9d1902f4e0b84f65f49f244b32b31013b7490636108c5329086908390635500079d906104e99087906004016123e7565b602060405180830381865afa158015610504573d5f803e3d5ffd5b505050506040513d601f19601f8201168201806040525081019061052891906122f7565b6040517fffffffff0000000000000000000000000000000000000000000000000000000060e085901b16815273ffffffffffffffffffffffffffffffffffffffff90921660048301526024820152604401602060405180830381865afa158015610594573d5f803e3d5ffd5b505050506040513d601f19601f820116820180604052508101906105b891906123f9565b949350505050565b606046600181900361096d5773ffffffffffffffffffffffffffffffffffffffff831673e96b516d40db176f6b120fd8ff025de6b7bb32ee0361062057604051806101e001604052806101c08152602001612aa76101c091399392505050565b73ffffffffffffffffffffffffffffffffffffffff831673c6b13d5e662fa0458f03995bcb824a1934aa895f0361067457604051806101e001604052806101c081526020016131a76101c091399392505050565b73ffffffffffffffffffffffffffffffffffffffff831673beef5afe88ef73337e5070ab2855d37dbf5493a4036106c857604051806101e001604052806101c081526020016133676101c091399392505050565b73ffffffffffffffffffffffffffffffffffffffff8316737c420c3a33aa87bf0c6327930b93376079e06a180361071c57604051806101e001604052806101c081526020016128e76101c091399392505050565b73ffffffffffffffffffffffffffffffffffffffff831673d7cb8cc1b56356bb7b78d02e785ead28e21586600361077057604051806101e001604052806101c08152602001612e276101c091399392505050565b73ffffffffffffffffffffffffffffffffffffffff831673301076c36e034948a747bb61bab9cd03f62672e3036107c457604051806101e001604052806101c08152602001612c676101c091399392505050565b73ffffffffffffffffffffffffffffffffffffffff831673b3bf81714f704720dcb0351ff0d42eca61b069fc0361081857604051806101e001604052806101c081526020016136e76101c091399392505050565b73ffffffffffffffffffffffffffffffffffffffff8316736f37bcb7ad3e6c9309c2c7698f25e0653bfddf460361086c57604051806101e001604052806101c081526020016138a76101c091399392505050565b73ffffffffffffffffffffffffffffffffffffffff831673027e1cbf2c299cba5eb8a2584910d04f1a8aa403036108c057604051806101e001604052806101c081526020016127276101c091399392505050565b73ffffffffffffffffffffffffffffffffffffffff8316739941fd7db2003308e7ee17b04400012278f12ac60361091457604051806101e001604052806101c081526020016135276101c091399392505050565b73ffffffffffffffffffffffffffffffffffffffff831673eff88aff44c361d7205776cf16ec303c6262a4af0361096857604051806101e001604052806101c08152602001612fe76101c091399392505050565b6109dc565b806064036109dc576040517f08c379a000000000000000000000000000000000000000000000000000000000815260206004820152600d60248201527f556e696d706c656d656e7465640000000000000000000000000000000000000060448201526064015b60405180910390fd5b505060408051602081019091525f8152919050565b5f610aff739008d19f58aabd9ed0d60971565aa8510560ab4173ffffffffffffffffffffffffffffffffffffffff1663f698da256040518163ffffffff1660e01b8152600401602060405180830381865afa158015610a52573d5f803e3d5ffd5b505050506040513d601f19601f82011682018060405250810190610a7691906122f7565b7fffffffffffffffffffffffffffffffffffffffffffffffffffffffffffffffe0840180517fd5a25ba2e97094ad7d83dc28a6572da797d6b3e7fc6663bd93efb789fc17e48982526101a0822091526040517f19010000000000000000000000000000000000000000000000000000000000008152600281019290925260228201526042902090565b92915050565b60408051610180810182525f80825260208201819052918101829052606081018290526080810182905260a0810182905260c0810182905260e0810182905261010081018290526101208101829052610140810182905261016081019190915260608060028414610ba2576040517f9d89020a00000000000000000000000000000000000000000000000000000000815260040160405180910390fd5b60408051610180810182525f80825260208201819052818301819052606082018190526080820181905260a0820181905260c0820181905260e082018190526101008201819052610120820181905261014082018190526101608201819052825160018082528185019094529192909190816020015b60408051606080820183525f808352602083015291810191909152815260200190600190039081610c185790505090506060610c538961135a565b610e2f57610c608961136d565b610cc6576040517f08c379a000000000000000000000000000000000000000000000000000000000815260206004820152601560248201527f506f6f6c206973206e6f742063616e6f6e6963616c000000000000000000000060448201526064016109d3565b5f8973ffffffffffffffffffffffffffffffffffffffff16630dfe16816040518163ffffffff1660e01b8152600401602060405180830381865afa158015610d10573d5f803e3d5ffd5b505050506040513d601f19601f82011682018060405250810190610d3491906122dc565b90505f8a73ffffffffffffffffffffffffffffffffffffffff1663d21220a76040518163ffffffff1660e01b8152600401602060405180830381865afa158015610d80573d5f803e3d5ffd5b505050506040513d601f19601f82011682018060405250810190610da491906122dc565b6040517f08c379a000000000000000000000000000000000000000000000000000000000815260206004820152603060248201527f436865636b20666f722074686520706f6f6c20686176696e672074726164696e60448201527f6720656e61626c6564206f72206e6f740000000000000000000000000000000060648201529091506084016109d3565b610e38896101be565b610e6e576040517fefc869b400000000000000000000000000000000000000000000000000000000815260040160405180910390fd5b5f80610e798b611a6d565b915091505f8160400151806020019051810190610e969190612450565b9050610f776040518060c001604052808e73ffffffffffffffffffffffffffffffffffffffff168152602001855f81518110610ed457610ed4612414565b602002602001015173ffffffffffffffffffffffffffffffffffffffff16815260200185600181518110610f0a57610f0a612414565b602002602001015173ffffffffffffffffffffffffffffffffffffffff1681526020018d8d5f818110610f3f57610f3f612414565b9050602002013581526020018d8d6001818110610f5e57610f5e612414565b9050602002013581526020018360a001518152506116a2565b9550739008d19f58aabd9ed0d60971565aa8510560ab4173ffffffffffffffffffffffffffffffffffffffff1663f698da256040518163ffffffff1660e01b8152600401602060405180830381865afa158015610fd6573d5f803e3d5ffd5b505050506040513d601f19601f82011682018060405250810190610ffa91906122f7565b7fd5a25ba2e97094ad7d83dc28a6572da797d6b3e7fc6663bd93efb789fc17e4898760405160200161102c9190612441565b604080517fffffffffffffffffffffffffffffffffffffffffffffffffffffffffffffffe08184030181525f606084018181526080850184528452602080850189905283518082018552918252848401919091529151909261109092909101612508565b604080517fffffffffffffffffffffffffffffffffffffffffffffffffffffffffffffffe0818403018152908290526110ce949392916024016125b1565b6040516020818303038152906040527f5fd7e97d000000000000000000000000000000000000000000000000000000007bffffffffffffffffffffffffffffffffffffffffffffffffffffffff19166020820180517bffffffffffffffffffffffffffffffffffffffffffffffffffffffff838183161783525050505093506040518060600160405280835f015173ffffffffffffffffffffffffffffffffffffffff1681526020015f81526020018d61128b739008d19f58aabd9ed0d60971565aa8510560ab4173ffffffffffffffffffffffffffffffffffffffff1663f698da256040518163ffffffff1660e01b8152600401602060405180830381865afa1580156111de573d5f803e3d5ffd5b505050506040513d601f19601f8201168201806040525081019061120291906122f7565b7fffffffffffffffffffffffffffffffffffffffffffffffffffffffffffffffe08b0180517fd5a25ba2e97094ad7d83dc28a6572da797d6b3e7fc6663bd93efb789fc17e48982526101a0822091526040517f19010000000000000000000000000000000000000000000000000000000000008152600281019290925260228201526042902090565b60405173ffffffffffffffffffffffffffffffffffffffff90921660248301526044820152606401604080517fffffffffffffffffffffffffffffffffffffffffffffffffffffffffffffffe08184030181529190526020810180517bffffffffffffffffffffffffffffffffffffffffffffffffffffffff167f30f73c99000000000000000000000000000000000000000000000000000000001790529052855186905f9061133d5761133d612414565b602002602001018190525050505091989097509095509350505050565b5f80611365836105c0565b511192915050565b6040517f666e1b3900000000000000000000000000000000000000000000000000000000815273ffffffffffffffffffffffffffffffffffffffff821660048201525f908190819063666e1b3990602401602060405180830381865afa1580156113d9573d5f803e3d5ffd5b505050506040513d601f19601f820116820180604052508101906113fd91906122dc565b73ffffffffffffffffffffffffffffffffffffffff16141592915050565b60408051600280825260608083018452926020830190803683370190505090506114448261135a565b6115c0578173ffffffffffffffffffffffffffffffffffffffff16630dfe16816040518163ffffffff1660e01b8152600401602060405180830381865afa158015611491573d5f803e3d5ffd5b505050506040513d601f19601f820116820180604052508101906114b591906122dc565b815f815181106114c7576114c7612414565b602002602001019073ffffffffffffffffffffffffffffffffffffffff16908173ffffffffffffffffffffffffffffffffffffffff16815250508173ffffffffffffffffffffffffffffffffffffffff1663d21220a76040518163ffffffff1660e01b8152600401602060405180830381865afa15801561154a573d5f803e3d5ffd5b505050506040513d601f19601f8201168201806040525081019061156e91906122dc565b8160018151811061158157611581612414565b602002602001019073ffffffffffffffffffffffffffffffffffffffff16908173ffffffffffffffffffffffffffffffffffffffff1681525050919050565b5f6115ca83611a6d565b509050805f815181106115df576115df612414565b6020026020010151825f815181106115f9576115f9612414565b602002602001019073ffffffffffffffffffffffffffffffffffffffff16908173ffffffffffffffffffffffffffffffffffffffff16815250508060018151811061164657611646612414565b60200260200101518260018151811061166157611661612414565b602002602001019073ffffffffffffffffffffffffffffffffffffffff16908173ffffffffffffffffffffffffffffffffffffffff1681525050505b919050565b60408051610180810182525f80825260208201819052918101829052606081018290526080810182905260a0810182905260c0810182905260e08101829052610100810182905261012081018290526101408101829052610160810191909152602082015182516040517f70a0823100000000000000000000000000000000000000000000000000000000815273ffffffffffffffffffffffffffffffffffffffff91821660048201525f92839216906370a0823190602401602060405180830381865afa158015611776573d5f803e3d5ffd5b505050506040513d601f19601f8201168201806040525081019061179a91906122f7565b604085810151865191517f70a0823100000000000000000000000000000000000000000000000000000000815273ffffffffffffffffffffffffffffffffffffffff92831660048201529116906370a0823190602401602060405180830381865afa15801561180b573d5f803e3d5ffd5b505050506040513d601f19601f8201168201806040525081019061182f91906122f7565b915091505f805f805f886080015187611848919061260e565b90505f89606001518761185b919061260e565b90505f828210156118e4578a6020015196508a60400151955061188e828c608001516002611889919061260e565b611b89565b61189960028b612652565b6118a39190612665565b94506118da85868d608001516118b9919061260e565b6118c39085612678565b8b8e606001516118d3919061260e565b6001611bbf565b9350849050611952565b8a6040015196508a602001519550611907838c606001516002611889919061260e565b61191260028a612652565b61191c9190612665565b945061194c85868d60600151611932919061260e565b61193c9086612678565b8a8e608001516118d3919061260e565b93508390505b6040518061018001604052808873ffffffffffffffffffffffffffffffffffffffff1681526020018773ffffffffffffffffffffffffffffffffffffffff1681526020015f73ffffffffffffffffffffffffffffffffffffffff1681526020018681526020018581526020016119c961012c611c1a565b63ffffffff1681526020018c60a0015181526020015f81526020017ff3b277728b3fee749481eb3e0b3b48980dbbab78658fc419025cb16eee34677581526020016001151581526020017f5a28e9363bb942b639270062aa6bb295f434bcdfc42c97267bf003f272060dc981526020017f5a28e9363bb942b639270062aa6bb295f434bcdfc42c97267bf003f272060dc98152509950505050505050505050919050565b60408051606081810183525f8083526020830152918101829052611a90836105c0565b806020019051810190611aa3919061230e565b90505f8160400151806020019051810190611abe9190612450565b6040805160028082526060820183529293509190602083019080368337019050509250805f0151835f81518110611af757611af7612414565b602002602001019073ffffffffffffffffffffffffffffffffffffffff16908173ffffffffffffffffffffffffffffffffffffffff1681525050806020015183600181518110611b4957611b49612414565b602002602001019073ffffffffffffffffffffffffffffffffffffffff16908173ffffffffffffffffffffffffffffffffffffffff168152505050915091565b5f8215611bb65781611b9c600185612665565b611ba69190612652565b611bb1906001612678565b611bb8565b5f5b9392505050565b5f80611bcc868686611c3b565b90506001836002811115611be257611be261268b565b148015611bfe57505f8480611bf957611bf9612625565b868809115b15611c1157611c0e600182612678565b90505b95945050505050565b5f8180611c2781426126b8565b611c3191906126da565b610aff9190612702565b5f80807fffffffffffffffffffffffffffffffffffffffffffffffffffffffffffffffff858709858702925082811083820303915050805f03611c9157838281611c8757611c87612625565b0492505050611bb8565b808411611cfa576040517f08c379a000000000000000000000000000000000000000000000000000000000815260206004820152601560248201527f4d6174683a206d756c446976206f766572666c6f77000000000000000000000060448201526064016109d3565b5f84868809600260036001881981018916988990049182028318808302840302808302840302808302840302808302840302808302840302918202909203025f889003889004909101858311909403939093029303949094049190911702949350505050565b73ffffffffffffffffffffffffffffffffffffffff81168114611d81575f80fd5b50565b803561169d81611d60565b5f60208284031215611d9f575f80fd5b8135611bb881611d60565b5f81518084528060208401602086015e5f6020828601015260207fffffffffffffffffffffffffffffffffffffffffffffffffffffffffffffffe0601f83011685010191505092915050565b602081525f611bb86020830184611daa565b7f4e487b71000000000000000000000000000000000000000000000000000000005f52604160045260245ffd5b604051610180810167ffffffffffffffff81118282101715611e5957611e59611e08565b60405290565b60405160c0810167ffffffffffffffff81118282101715611e5957611e59611e08565b803563ffffffff8116811461169d575f80fd5b8015158114611d81575f80fd5b803561169d81611e95565b5f6101808284031215611ebe575f80fd5b611ec6611e35565b611ecf83611d84565b8152611edd60208401611d84565b6020820152611eee60408401611d84565b60408201526060830135606082015260808301356080820152611f1360a08401611e82565b60a082015260c083013560c082015260e083013560e0820152610100808401358183015250610120611f46818501611ea2565b908201526101408381013590820152610160928301359281019290925250919050565b5f805f60408486031215611f7b575f80fd5b8335611f8681611d60565b9250602084013567ffffffffffffffff80821115611fa2575f80fd5b818601915086601f830112611fb5575f80fd5b813581811115611fc3575f80fd5b8760208260051b8501011115611fd7575f80fd5b6020830194508093505050509250925092565b805173ffffffffffffffffffffffffffffffffffffffff168252602081015161202b602084018273ffffffffffffffffffffffffffffffffffffffff169052565b506040810151612053604084018273ffffffffffffffffffffffffffffffffffffffff169052565b50606081015160608301526080810151608083015260a081015161207f60a084018263ffffffff169052565b5060c081015160c083015260e081015160e0830152610100808201518184015250610120808201516120b48285018215159052565b5050610140818101519083015261016090810151910152565b5f6101c08083016120de8488611fea565b6101808401919091528451908190526101e080840191600581901b85019091019060208088015f5b83811015612188578785037ffffffffffffffffffffffffffffffffffffffffffffffffffffffffffffffe200186528151805173ffffffffffffffffffffffffffffffffffffffff168652838101518487015260409081015160609187018290529061217481880183611daa565b978501979650505090820190600101612106565b505050508381036101a085015261219f8186611daa565b979650505050505050565b602080825282518282018190525f9190848201906040850190845b818110156121f757835173ffffffffffffffffffffffffffffffffffffffff16835292840192918401916001016121c5565b50909695505050505050565b5f82601f830112612212575f80fd5b815167ffffffffffffffff8082111561222d5761222d611e08565b604051601f83017fffffffffffffffffffffffffffffffffffffffffffffffffffffffffffffffe0908116603f0116810190828211818310171561227357612273611e08565b8160405283815286602085880101111561228b575f80fd5b8360208701602083015e5f602085830101528094505050505092915050565b5f602082840312156122ba575f80fd5b815167ffffffffffffffff8111156122d0575f80fd5b6105b884828501612203565b5f602082840312156122ec575f80fd5b8151611bb881611d60565b5f60208284031215612307575f80fd5b5051919050565b5f6020828403121561231e575f80fd5b815167ffffffffffffffff80821115612335575f80fd5b9083019060608286031215612348575f80fd5b60405160608101818110838211171561236357612363611e08565b604052825161237181611d60565b81526020838101519082015260408301518281111561238e575f80fd5b61239a87828601612203565b60408301525095945050505050565b73ffffffffffffffffffffffffffffffffffffffff8151168252602081015160208301525f6040820151606060408501526105b86060850182611daa565b602081525f611bb860208301846123a9565b5f60208284031215612409575f80fd5b8151611bb881611e95565b7f4e487b71000000000000000000000000000000000000000000000000000000005f52603260045260245ffd5b6101808101610aff8284611fea565b5f60208284031215612460575f80fd5b815167ffffffffffffffff80821115612477575f80fd5b9083019060c0828603121561248a575f80fd5b612492611e5f565b825161249d81611d60565b815260208301516124ad81611d60565b60208201526040838101519082015260608301516124ca81611d60565b60608201526080830151828111156124e0575f80fd5b6124ec87828601612203565b60808301525060a083015160a082015280935050505092915050565b602080825282516060838301528051608084018190525f9291820190839060a08601905b8083101561254c578351825292840192600192909201919084019061252c565b508387015193507fffffffffffffffffffffffffffffffffffffffffffffffffffffffffffffffe092508286820301604087015261258a81856123a9565b935050506040850151818584030160608601526125a78382611daa565b9695505050505050565b848152836020820152608060408201525f6125cf6080830185611daa565b828103606084015261219f8185611daa565b7f4e487b71000000000000000000000000000000000000000000000000000000005f52601160045260245ffd5b8082028115828204841417610aff57610aff6125e1565b7f4e487b71000000000000000000000000000000000000000000000000000000005f52601260045260245ffd5b5f8261266057612660612625565b500490565b81810381811115610aff57610aff6125e1565b80820180821115610aff57610aff6125e1565b7f4e487b71000000000000000000000000000000000000000000000000000000005f52602160045260245ffd5b5f63ffffffff808416806126ce576126ce612625565b92169190910492915050565b63ffffffff8181168382160280821691908281146126fa576126fa6125e1565b505092915050565b63ffffffff81811683821601908082111561271f5761271f6125e1565b509291505056fe000000000000000000000000000000000000000000000000000000000000002000000000000000000000000034323b933096534e43958f6c7bf44f2bb59424dac5a0e756ac88c1d3a4c41900d977fe93c2d34fc95a00ca3e84eb4c6b50faf949000000000000000000000000000000000000000000000000000000000000006000000000000000000000000000000000000000000000000000000000000001200000000000000000000000000000000000000000000000000000000000000020000000000000000000000000c02aaa39b223fe8d0a0e5c4f27ead9083c756cc20000000000000000000000005afe3855358e112b5647b952709e6165e1c1eeee000000000000000000000000000000000000000000000000016345785d8a0000000000000000000000000000573cc0c800048f94e022463b9214d92c2d65e97b00000000000000000000000000000000000000000000000000000000000000c04d821ddc9d656177dad4d5c2f76a4bff2ed514ff69fa4aa4fd869d6e98d55c8900000000000000000000000000000000000000000000000000000000000000200000000000000000000000002e7e978da0c53404a8cf66ed4ba2c7706c07b62a000000000000000000000000000000000000000000000000000000000000002000000000000000000000000034323b933096534e43958f6c7bf44f2bb59424da6400000000000000000000000000000000000000000000000000000000000000000000000000000000000000000000000000000000000000000000000000006000000000000000000000000000000000000000000000000000000000000001200000000000000000000000000000000000000000000000000000000000000020000000000000000000000000dac17f958d2ee523a2206206994597c13d831ec7000000000000000000000000a0b86991c6218b36c1d19d4a2e9eb0ce3606eb480000000000000000000000000000000000000000000000000000000005f5e100000000000000000000000000573cc0c800048f94e022463b9214d92c2d65e97b00000000000000000000000000000000000000000000000000000000000000c0924f5e36ae70c8cdad505bc4807be76099024df2520e89d14478e42c5208444100000000000000000000000000000000000000000000000000000000000000200000000000000000000000003041cbd36888becc7bbcbc0045e3b1f144466f5f000000000000000000000000000000000000000000000000000000000000002000000000000000000000000034323b933096534e43958f6c7bf44f2bb59424da023a9026beba2be0b9d1dc6615e457e7b59d2e482b8815cba9699aa81c7aaf5c000000000000000000000000000000000000000000000000000000000000006000000000000000000000000000000000000000000000000000000000000001200000000000000000000000000000000000000000000000000000000000000020000000000000000000000000c02aaa39b223fe8d0a0e5c4f27ead9083c756cc2000000000000000000000000a0b86991c6218b36c1d19d4a2e9eb0ce3606eb4800000000000000000000000000000000000000000000000000090cec99ceefa4000000000000000000000000ad37fe3ddedf8cdee1022da1b17412cfb649559600000000000000000000000000000000000000000000000000000000000000c04d821ddc9d656177dad4d5c2f76a4bff2ed514ff69fa4aa4fd869d6e98d55c8900000000000000000000000000000000000000000000000000000000000000206f0ed6f346007563d3266de350d174a831bde0ca0001000000000000000005db000000000000000000000000000000000000000000000000000000000000002000000000000000000000000034323b933096534e43958f6c7bf44f2bb59424daca44b6a304baa16d11b6db07066c1276b1273ee3f94590bbd03201a61882af9a000000000000000000000000000000000000000000000000000000000000006000000000000000000000000000000000000000000000000000000000000001200000000000000000000000000000000000000000000000000000000000000020000000000000000000000000a0b86991c6218b36c1d19d4a2e9eb0ce3606eb48000000000000000000000000c02aaa39b223fe8d0a0e5c4f27ead9083c756cc2000000000000000000000000000000000000000000000000000000000098cb76000000000000000000000000573cc0c800048f94e022463b9214d92c2d65e97b00000000000000000000000000000000000000000000000000000000000000c04d821ddc9d656177dad4d5c2f76a4bff2ed514ff69fa4aa4fd869d6e98d55c890000000000000000000000000000000000000000000000000000000000000020000000000000000000000000b4e16d0168e52d35cacd2c6185b44281ec28c9dc000000000000000000000000000000000000000000000000000000000000002000000000000000000000000034323b933096534e43958f6c7bf44f2bb59424da80ba533f014ef4238ab7ad203c0aeacbf30a71c0346140db77c43ae3121afadd000000000000000000000000000000000000000000000000000000000000006000000000000000000000000000000000000000000000000000000000000001200000000000000000000000000000000000000000000000000000000000000020000000000000000000000000aea46a60368a7bd060eec7df8cba43b7ef41ad85000000000000000000000000c02aaa39b223fe8d0a0e5c4f27ead9083c756cc2000000000000000000000000000000000000000000000000336632e53c8ecf04000000000000000000000000573cc0c800048f94e022463b9214d92c2d65e97b00000000000000000000000000000000000000000000000000000000000000c04d821ddc9d656177dad4d5c2f76a4bff2ed514ff69fa4aa4fd869d6e98d55c8900000000000000000000000000000000000000000000000000000000000000200000000000000000000000004042a04c54ef133ac2a3c93db69d43c6c02a330b000000000000000000000000000000000000000000000000000000000000002000000000000000000000000034323b933096534e43958f6c7bf44f2bb59424da2e8e6822f26439971f4b155fbd184cd8b8f2d595c40d8aec36b09e04c5004ad60000000000000000000000000000000000000000000000000000000000000060000000000000000000000000000000000000000000000000000000000000012000000000000000000000000000000000000000000000000000000000000000200000000000000000000000006b175474e89094c44da98b954eedeac495271d0f000000000000000000000000c02aaa39b223fe8d0a0e5c4f27ead9083c756cc200000000000000000000000000000000000000000000000068155a43676e0000000000000000000000000000573cc0c800048f94e022463b9214d92c2d65e97b00000000000000000000000000000000000000000000000000000000000000c04d821ddc9d656177dad4d5c2f76a4bff2ed514ff69fa4aa4fd869d6e98d55c890000000000000000000000000000000000000000000000000000000000000020000000000000000000000000c3d03e4f041fd4cd388c549ee2a29a9e5075882f000000000000000000000000000000000000000000000000000000000000002000000000000000000000000034323b933096534e43958f6c7bf44f2bb59424da932542294ff270a8bbdbe1fb921de3d09c9749dc35627361fc17c44b9b026b810000000000000000000000000000000000000000000000000000000000000060000000000000000000000000000000000000000000000000000000000000012000000000000000000000000000000000000000000000000000000000000000200000000000000000000000008390a1da07e376ef7add4be859ba74fb83aa02d5000000000000000000000000c02aaa39b223fe8d0a0e5c4f27ead9083c756cc2000000000000000000000000000000000000000000000000000000aec1c94998000000000000000000000000573cc0c800048f94e022463b9214d92c2d65e97b00000000000000000000000000000000000000000000000000000000000000c04d821ddc9d656177dad4d5c2f76a4bff2ed514ff69fa4aa4fd869d6e98d55c89000000000000000000000000000000000000000000000000000000000000002000000000000000000000000069c66beafb06674db41b22cfc50c34a93b8d82a2000000000000000000000000000000000000000000000000000000000000002000000000000000000000000034323b933096534e43958f6c7bf44f2bb59424da0000000000000000000000000000000000000000000000000000000000000000000000000000000000000000000000000000000000000000000000000000006000000000000000000000000000000000000000000000000000000000000001200000000000000000000000000000000000000000000000000000000000000020000000000000000000000000c02aaa39b223fe8d0a0e5c4f27ead9083c756cc2000000000000000000000000def1ca1fb7fbcdc777520aa7f396b4e015f497ab000000000000000000000000000000000000000000000000025bf6196bd10000000000000000000000000000ad37fe3ddedf8cdee1022da1b17412cfb649559600000000000000000000000000000000000000000000000000000000000000c0d661a16b0e85eadb705cf5158132b5dd1ebc0a49929ef68097698d15e2a4e3b40000000000000000000000000000000000000000000000000000000000000020de8c195aa41c11a0c4787372defbbddaa31306d2000200000000000000000181000000000000000000000000000000000000000000000000000000000000002000000000000000000000000034323b933096534e43958f6c7bf44f2bb59424da559d5fda20be80608e4d5ea1b41e6b9330efca7934beb094281dd4d8f4889374000000000000000000000000000000000000000000000000000000000000006000000000000000000000000000000000000000000000000000000000000001200000000000000000000000000000000000000000000000000000000000000020000000000000000000000000514910771af9ca656af840dff83e8264ecf986ca000000000000000000000000c02aaa39b223fe8d0a0e5c4f27ead9083c756cc2000000000000000000000000000000000000000000000000079ef7f110fdfae4000000000000000000000000ad37fe3ddedf8cdee1022da1b17412cfb649559600000000000000000000000000000000000000000000000000000000000000c04d821ddc9d656177dad4d5c2f76a4bff2ed514ff69fa4aa4fd869d6e98d55c890000000000000000000000000000000000000000000000000000000000000020e99481dc77691d8e2456e5f3f61c1810adfc1503000200000000000000000018000000000000000000000000000000000000000000000000000000000000002000000000000000000000000034323b933096534e43958f6c7bf44f2bb59424dad003838829115f5d9ff3ed69c8d2b4b26e10eb1a79331206c28fbb4734390a5e000000000000000000000000000000000000000000000000000000000000006000000000000000000000000000000000000000000000000000000000000001200000000000000000000000000000000000000000000000000000000000000020000000000000000000000000808507121b80c02388fad14726482e061b8da827000000000000000000000000c02aaa39b223fe8d0a0e5c4f27ead9083c756cc2000000000000000000000000000000000000000000000000189b23422a9b84d8000000000000000000000000ad37fe3ddedf8cdee1022da1b17412cfb649559600000000000000000000000000000000000000000000000000000000000000c04d821ddc9d656177dad4d5c2f76a4bff2ed514ff69fa4aa4fd869d6e98d55c890000000000000000000000000000000000000000000000000000000000000020fd1cf6fd41f229ca86ada0584c63c49c3d66bbc9000200000000000000000438000000000000000000000000000000000000000000000000000000000000002000000000000000000000000034323b933096534e43958f6c7bf44f2bb59424da5d6460e689a50f6b3ffed85c398fb9ff776af99c268fc25b66fab3c73079bbdb000000000000000000000000000000000000000000000000000000000000006000000000000000000000000000000000000000000000000000000000000001200000000000000000000000000000000000000000000000000000000000000020000000000000000000000000a0b86991c6218b36c1d19d4a2e9eb0ce3606eb48000000000000000000000000c02aaa39b223fe8d0a0e5c4f27ead9083c756cc20000000000000000000000000000000000000000000000000000000000989680000000000000000000000000ad37fe3ddedf8cdee1022da1b17412cfb649559600000000000000000000000000000000000000000000000000000000000000c04d821ddc9d656177dad4d5c2f76a4bff2ed514ff69fa4aa4fd869d6e98d55c89000000000000000000000000000000000000000000000000000000000000002067f117350eab45983374f4f83d275d8a5d62b1bf0001000000000000000004f2a26469706673582212207fb7ad43fcab2e906be3837b364ad3c3730953292b815cfde6c823330ff7255964736f6c63430008190033","linkReferences":{}},"methodIdentifiers":{"MAX_ORDER_DURATION()":"981a160b","factory()":"c45a0155","getSnapshot(address)":"21570256","hashHelper((address,address,address,uint256,uint256,uint32,bytes32,uint256,bytes32,bool,bytes32,bytes32))":"24c09ebc","isCanonical(address)":"b754bdfa","isLegacy(address)":"2aec79a0","isLegacyEnabled(address)":"10029daa","order(address,uint256[])":"27242c9b","tokens(address)":"e4860339"},"id":124}