{"abi":[{"type":"constructor","inputs":[{"name":"authenticator_","type":"address","internalType":"contract GPv2Authentication"},{"name":"vault_","type":"address","internalType":"contract IVault"}],"stateMutability":"nonpayable"},{"type":"receive","stateMutability":"payable"},{"type":"function","name":"authenticator","inputs":[],"outputs":[{"name":"","type":"address","internalType":"contract GPv2Authentication"}],"stateMutability":"view"},{"type":"function","name":"domainSeparator","inputs":[],"outputs":[{"name":"","type":"bytes32","internalType":"bytes32"}],"stateMutability":"view"},{"type":"function","name":"filledAmount","inputs":[{"name":"","type":"bytes","internalType":"bytes"}],"outputs":[{"name":"","type":"uint256","internalType":"uint256"}],"stateMutability":"view"},{"type":"function","name":"freeFilledAmountStorage","inputs":[{"name":"orderUids","type":"bytes[]","internalType":"bytes[]"}],"outputs":[],"stateMutability":"nonpayable"},{"type":"function","name":"freePreSignatureStorage","inputs":[{"name":"orderUids","type":"bytes[]","internalType":"bytes[]"}],"outputs":[],"stateMutability":"nonpayable"},{"type":"function","name":"getStorageAt","inputs":[{"name":"offset","type":"uint256","internalType":"uint256"},{"name":"length","type":"uint256","internalType":"uint256"}],"outputs":[{"name":"","type":"bytes","internalType":"bytes"}],"stateMutability":"view"},{"type":"function","name":"invalidateOrder","inputs":[{"name":"orderUid","type":"bytes","internalType":"bytes"}],"outputs":[],"stateMutability":"nonpayable"},{"type":"function","name":"preSignature","inputs":[{"name":"","type":"bytes","internalType":"bytes"}],"outputs":[{"name":"","type":"uint256","internalType":"uint256"}],"stateMutability":"view"},{"type":"function","name":"setPreSignature","inputs":[{"name":"orderUid","type":"bytes","internalType":"bytes"},{"name":"signed","type":"bool","internalType":"bool"}],"outputs":[],"stateMutability":"nonpayable"},{"type":"function","name":"settle","inputs":[{"name":"tokens","type":"address[]","internalType":"contract IERC20[]"},{"name":"clearingPrices","type":"uint256[]","internalType":"uint256[]"},{"name":"trades","type":"tuple[]","internalType":"struct GPv2Trade.Data[]","components":[{"name":"sellTokenIndex","type":"uint256","internalType":"uint256"},{"name":"buyTokenIndex","type":"uint256","internalType":"uint256"},{"name":"receiver","type":"address","internalType":"address"},{"name":"sellAmount","type":"uint256","internalType":"uint256"},{"name":"buyAmount","type":"uint256","internalType":"uint256"},{"name":"validTo","type":"uint32","internalType":"uint32"},{"name":"appData","type":"bytes32","internalType":"bytes32"},{"name":"feeAmount","type":"uint256","internalType":"uint256"},{"name":"flags","type":"uint256","internalType":"uint256"},{"name":"executedAmount","type":"uint256","internalType":"uint256"},{"name":"signature","type":"bytes","internalType":"bytes"}]},{"name":"interactions","type":"tuple[][3]","internalType":"struct GPv2Interaction.Data[][3]","components":[{"name":"target","type":"address","internalType":"address"},{"name":"value","type":"uint256","internalType":"uint256"},{"name":"callData","type":"bytes","internalType":"bytes"}]}],"outputs":[],"stateMutability":"nonpayable"},{"type":"function","name":"simulateDelegatecall","inputs":[{"name":"targetContract","type":"address","internalType":"address"},{"name":"calldataPayload","type":"bytes","internalType":"bytes"}],"outputs":[{"name":"response","type":"bytes","internalType":"bytes"}],"stateMutability":"nonpayable"},{"type":"function","name":"simulateDelegatecallInternal","inputs":[{"name":"targetContract","type":"address","internalType":"address"},{"name":"calldataPayload","type":"bytes","internalType":"bytes"}],"outputs":[{"name":"response","type":"bytes","internalType":"bytes"}],"stateMutability":"nonpayable"},{"type":"function","name":"swap","inputs":[{"name":"swaps","type":"tuple[]","internalType":"struct IVault.BatchSwapStep[]","components":[{"name":"poolId","type":"bytes32","internalType":"bytes32"},{"name":"assetInIndex","type":"uint256","internalType":"uint256"},{"name":"assetOutIndex","type":"uint256","internalType":"uint256"},{"name":"amount","type":"uint256","internalType":"uint256"},{"name":"userData","type":"bytes","internalType":"bytes"}]},{"name":"tokens","type":"address[]","internalType":"contract IERC20[]"},{"name":"trade","type":"tuple","internalType":"struct GPv2Trade.Data","components":[{"name":"sellTokenIndex","type":"uint256","internalType":"uint256"},{"name":"buyTokenIndex","type":"uint256","internalType":"uint256"},{"name":"receiver","type":"address","internalType":"address"},{"name":"sellAmount","type":"uint256","internalType":"uint256"},{"name":"buyAmount","type":"uint256","internalType":"uint256"},{"name":"validTo","type":"uint32","internalType":"uint32"},{"name":"appData","type":"bytes32","internalType":"bytes32"},{"name":"feeAmount","type":"uint256","internalType":"uint256"},{"name":"flags","type":"uint256","internalType":"uint256"},{"name":"executedAmount","type":"uint256","internalType":"uint256"},{"name":"signature","type":"bytes","internalType":"bytes"}]}],"outputs":[],"stateMutability":"nonpayable"},{"type":"function","name":"vault","inputs":[],"outputs":[{"name":"","type":"address","internalType":"contract IVault"}],"stateMutability":"view"},{"type":"function","name":"vaultRelayer","inputs":[],"outputs":[{"name":"","type":"address","internalType":"contract GPv2VaultRelayer"}],"stateMutability":"view"},{"type":"event","name":"Interaction","inputs":[{"name":"target","type":"address","indexed":true,"internalType":"address"},{"name":"value","type":"uint256","indexed":false,"internalType":"uint256"},{"name":"selector","type":"bytes4","indexed":false,"internalType":"bytes4"}],"anonymous":false},{"type":"event","name":"OrderInvalidated","inputs":[{"name":"owner","type":"address","indexed":true,"internalType":"address"},{"name":"orderUid","type":"bytes","indexed":false,"internalType":"bytes"}],"anonymous":false},{"type":"event","name":"PreSignature","inputs":[{"name":"owner","type":"address","indexed":true,"internalType":"address"},{"name":"orderUid","type":"bytes","indexed":false,"internalType":"bytes"},{"name":"signed","type":"bool","indexed":false,"internalType":"bool"}],"anonymous":false},{"type":"event","name":"Settlement","inputs":[{"name":"solver","type":"address","indexed":true,"internalType":"address"}],"anonymous":false},{"type":"event","name":"Trade","inputs":[{"name":"owner","type":"address","indexed":true,"internalType":"address"},{"name":"sellToken","type":"address","indexed":false,"internalType":"contract IERC20"},{"name":"buyToken","type":"address","indexed":false,"internalType":"contract IERC20"},{"name":"sellAmount","type":"uint256","indexed":false,"internalType":"uint256"},{"name":"buyAmount","type":"uint256","indexed":false,"internalType":"uint256"},{"name":"feeAmount","type":"uint256","indexed":false,"internalType":"uint256"},{"name":"orderUid","type":"bytes","indexed":false,"internalType":"bytes"}],"anonymous":false}],"bytecode":{"object":"0x610100604052348015610010575f80fd5b5060405161555238038061555283398101604081905261002f9161015a565b604080517f8b73c3c69bb8fe3d512ecc4cf759cc79239f7b179b0ffacaa9a75d522b39400f60208201527f6c85c0337eba1661327f94f3bf46c8a7f9311a563f4d5c948362567f5d8ed60c918101919091527ff9446b8e937d86f0bc87cac73923491692b123ca5f8761908494703758206adf606082015246608082018190523060a08301529060c00160408051601f19818403018152908290528051602090910120608052600180556001600160a01b0380851660a052831660c0528291506100f890610136565b6001600160a01b039091168152602001604051809103905ff080158015610121573d5f803e3d5ffd5b506001600160a01b031660e052506101929050565b6114278061412b83390190565b6001600160a01b0381168114610157575f80fd5b50565b5f806040838503121561016b575f80fd5b825161017681610143565b602084015190925061018781610143565b809150509250929050565b60805160a05160c05160e051613f356101f65f395f818161024f0152818161057e01528181610de901526115a401525f8181610367015261061001525f81816101430152818161042d015261095b01525f818161031501526126c30152613f355ff3fe6080604052600436106100e7575f3560e01c80639b552cc211610087578063ed9f35ce11610057578063ed9f35ce146102e5578063f698da2514610304578063f84436bd14610337578063fbfa77cf14610356575f80fd5b80639b552cc21461023e578063a2a7d51b14610271578063d08d33d114610290578063ec6cb13f146102c6575f80fd5b80632479fb6e116100c25780632479fb6e1461018f57806343218e19146101d45780635624b25b14610200578063845a101f1461021f575f80fd5b806313d79a0b146100f257806315337bc0146101135780632335c76b14610132575f80fd5b366100ee57005b5f80fd5b3480156100fd575f80fd5b5061011161010c36600461313f565b610389565b005b34801561011e575f80fd5b5061011161012d366004613238565b61067a565b34801561013d575f80fd5b506101657f000000000000000000000000000000000000000000000000000000000000000081565b60405173ffffffffffffffffffffffffffffffffffffffff90911681526020015b60405180910390f35b34801561019a575f80fd5b506101c66101a936600461337d565b805160208183018101805160028252928201919093012091525481565b604051908152602001610186565b3480156101df575f80fd5b506101f36101ee3660046133d3565b6107a2565b604051610186919061346c565b34801561020b575f80fd5b506101f361021a36600461347e565b610840565b34801561022a575f80fd5b5061011161023936600461349e565b6108bc565b348015610249575f80fd5b506101657f000000000000000000000000000000000000000000000000000000000000000081565b34801561027c575f80fd5b5061011161028b366004613532565b61119c565b34801561029b575f80fd5b506101c66102aa36600461337d565b80516020818301810180515f8252928201919093012091525481565b3480156102d1575f80fd5b506101116102e0366004613572565b611214565b3480156102f0575f80fd5b506101116102ff366004613532565b61136c565b34801561030f575f80fd5b506101c67f000000000000000000000000000000000000000000000000000000000000000081565b348015610342575f80fd5b506101f36103513660046133d3565b6113e1565b348015610361575f80fd5b506101657f000000000000000000000000000000000000000000000000000000000000000081565b6002600154036103fa576040517f08c379a000000000000000000000000000000000000000000000000000000000815260206004820152601f60248201527f5265656e7472616e637947756172643a207265656e7472616e742063616c6c0060448201526064015b60405180910390fd5b60026001556040517f02cc250d0000000000000000000000000000000000000000000000000000000081523360048201527f000000000000000000000000000000000000000000000000000000000000000073ffffffffffffffffffffffffffffffffffffffff16906302cc250d90602401602060405180830381865afa158015610487573d5f803e3d5ffd5b505050506040513d601f19601f820116820180604052508101906104ab91906135c5565b610511576040517f08c379a000000000000000000000000000000000000000000000000000000000815260206004820152601260248201527f475076323a206e6f74206120736f6c766572000000000000000000000000000060448201526064016103f1565b61052c815f5b602002810190610527919061360d565b61155c565b5f8061053c8989898989896116f0565b6040517f7d10d11f000000000000000000000000000000000000000000000000000000008152919350915073ffffffffffffffffffffffffffffffffffffffff7f00000000000000000000000000000000000000000000000000000000000000001690637d10d11f906105b3908590600401613671565b5f604051808303815f87803b1580156105ca575f80fd5b505af11580156105dc573d5f803e3d5ffd5b505050506105f683600160038110610517576105176135e0565b61063673ffffffffffffffffffffffffffffffffffffffff7f000000000000000000000000000000000000000000000000000000000000000016826118e1565b610641836002610517565b60405133907f40338ce1a7c49204f0099533b1e9a7ee0a3d261f84974ab7af36105b8c4e9db4905f90a250506001805550505050505050565b5f6106858383611c27565b5091505073ffffffffffffffffffffffffffffffffffffffff81163314610708576040517f08c379a000000000000000000000000000000000000000000000000000000000815260206004820152601f60248201527f475076323a2063616c6c657220646f6573206e6f74206f776e206f726465720060448201526064016103f1565b7fffffffffffffffffffffffffffffffffffffffffffffffffffffffffffffffff6002848460405161073b9291906136f9565b9081526020016040518091039020819055508073ffffffffffffffffffffffffffffffffffffffff167f875b6cb035bbd4ac6500fabc6d1e4ca5bdc58a3e2b424ccb5c24cdbebeb009a9848460405161079592919061374f565b60405180910390a2505050565b60605f8373ffffffffffffffffffffffffffffffffffffffff16836040516107ca9190613779565b5f60405180830381855af49150503d805f8114610802576040519150601f19603f3d011682016040523d82523d5f602084013e610807565b606091505b50604051909350909150610839906108259084908490602001613784565b604051602081830303815290604052611caf565b5092915050565b60605f61084e8360206137ce565b67ffffffffffffffff81111561086657610866613277565b6040519080825280601f01601f191660200182016040528015610890576020820181803683370190505b5090505f5b838110156108b25784810154602080830284010152600101610895565b5090505b92915050565b600260015403610928576040517f08c379a000000000000000000000000000000000000000000000000000000000815260206004820152601f60248201527f5265656e7472616e637947756172643a207265656e7472616e742063616c6c0060448201526064016103f1565b60026001556040517f02cc250d0000000000000000000000000000000000000000000000000000000081523360048201527f000000000000000000000000000000000000000000000000000000000000000073ffffffffffffffffffffffffffffffffffffffff16906302cc250d90602401602060405180830381865afa1580156109b5573d5f803e3d5ffd5b505050506040513d601f19601f820116820180604052508101906109d991906135c5565b610a3f576040517f08c379a000000000000000000000000000000000000000000000000000000000815260206004820152601260248201527f475076323a206e6f74206120736f6c766572000000000000000000000000000060448201526064016103f1565b5f610a48611cb7565b8051909150610a5982868686611d5c565b5f7ff3b277728b3fee749481eb3e0b3b48980dbbab78658fc419025cb16eee34677582610100015114610a8d576001610a8f565b5f5b604080516080810182525f808252602082018181528284018281526060808501848152958a015173ffffffffffffffffffffffffffffffffffffffff90811686526101408a01517f4ac99ace14ee0a5ef932dc609df0943ab7ac16b7583634612f8dc35a4289a6ce908114909452908a0151169052610160870151149092529192508667ffffffffffffffff811115610b2a57610b2a613277565b604051908082528060200260200182016040528015610b53578160200160208202803683370190505b50610100850151909150610120870135907f0c4d888d74c0118b6b7e14c1f4c4b767f24454879a703be6fda34e9111cb988b01610c5f578460800151811015610bf8576040517f08c379a000000000000000000000000000000000000000000000000000000000815260206004820152601360248201527f475076323a206c696d697420746f6f206c6f770000000000000000000000000060448201526064016103f1565b610c058560600151611df8565b82885f013581518110610c1a57610c1a6135e0565b602002602001018181525050610c2f81611df8565b610c38906137e5565b82886020013581518110610c4e57610c4e6135e0565b602002602001018181525050610d30565b8460600151811115610ccd576040517f08c379a000000000000000000000000000000000000000000000000000000000815260206004820152601460248201527f475076323a206c696d697420746f6f206869676800000000000000000000000060448201526064016103f1565b610cd681611df8565b82885f013581518110610ceb57610ceb6135e0565b602002602001018181525050610d048560800151611df8565b610d0d906137e5565b82886020013581518110610d2357610d236135e0565b6020026020010181815250505b604080516080810182525f8082526020820181905291810182905260608101919091528660400151815f019073ffffffffffffffffffffffffffffffffffffffff16908173ffffffffffffffffffffffffffffffffffffffff1681525050855f0151816020019073ffffffffffffffffffffffffffffffffffffffff16908173ffffffffffffffffffffffffffffffffffffffff16815250508560e001518160400181815250508561014001518160600181815250505f7f000000000000000000000000000000000000000000000000000000000000000073ffffffffffffffffffffffffffffffffffffffff16634817a286878f8f8f8f8b8b8f60a001518b6040518a63ffffffff1660e01b8152600401610e54999897969594939291906138cb565b5f604051808303815f875af1158015610e6f573d5f803e3d5ffd5b505050506040513d5f823e601f3d9081017fffffffffffffffffffffffffffffffffffffffffffffffffffffffffffffffe0168201604052610eb49190810190613aed565b90505f886020015190505f610ee4838c5f013581518110610ed757610ed76135e0565b6020026020010151611e87565b90505f610f16848d6020013581518110610f0057610f006135e0565b6020026020010151610f11906137e5565b611e87565b9050600283604051610f289190613779565b9081526020016040518091039020545f14610f9f576040517f08c379a000000000000000000000000000000000000000000000000000000000815260206004820152601260248201527f475076323a206f726465722066696c6c6564000000000000000000000000000060448201526064016103f1565b7ff3b277728b3fee749481eb3e0b3b48980dbbab78658fc419025cb16eee3467758a6101000151036110625789606001518214611038576040517f08c379a000000000000000000000000000000000000000000000000000000000815260206004820152601f60248201527f475076323a2073656c6c20616d6f756e74206e6f74207265737065637465640060448201526064016103f1565b896060015160028460405161104d9190613779565b908152604051908190036020019020556110f5565b896080015181146110cf576040517f08c379a000000000000000000000000000000000000000000000000000000000815260206004820152601e60248201527f475076323a2062757920616d6f756e74206e6f7420726573706563746564000060448201526064016103f1565b89608001516002846040516110e49190613779565b908152604051908190036020019020555b8a6040015173ffffffffffffffffffffffffffffffffffffffff167fa07a543ab8a018198e99ca0184c93fe9050a79400a0a723441f84de1d972cc178b5f01518c6020015185858f60e001518960405161115496959493929190613b8e565b60405180910390a260405133907f40338ce1a7c49204f0099533b1e9a7ee0a3d261f84974ab7af36105b8c4e9db4905f90a25050600180555050505050505050505050505050565b303314611205576040517f08c379a000000000000000000000000000000000000000000000000000000000815260206004820152601860248201527f475076323a206e6f7420616e20696e746572616374696f6e000000000000000060448201526064016103f1565b6112105f8383611ef2565b5050565b5f61121f8484611c27565b5091505073ffffffffffffffffffffffffffffffffffffffff811633146112a2576040517f08c379a000000000000000000000000000000000000000000000000000000000815260206004820152601a60248201527f475076323a2063616e6e6f74207072657369676e206f7264657200000000000060448201526064016103f1565b81156112f1577ff59c009283ff87aa78203fc4d9c2df025ee851130fb69cc3e068941f6b5e2d6f5f1c5f85856040516112dc9291906136f9565b90815260405190819003602001902055611314565b5f8085856040516113039291906136f9565b908152604051908190036020019020555b8073ffffffffffffffffffffffffffffffffffffffff167f01bf7c8b0ca55deecbea89d7e58295b7ffbf685fd0d96801034ba8c6ffe1c68d85858560405161135e93929190613bd8565b60405180910390a250505050565b3033146113d5576040517f08c379a000000000000000000000000000000000000000000000000000000000815260206004820152601860248201527f475076323a206e6f7420616e20696e746572616374696f6e000000000000000060448201526064016103f1565b61121060028383611ef2565b60605f6343218e1960e01b84846040516024016113ff929190613bfd565b604080517fffffffffffffffffffffffffffffffffffffffffffffffffffffffffffffffe08184030181529181526020820180517bffffffffffffffffffffffffffffffffffffffffffffffffffffffff167fffffffff00000000000000000000000000000000000000000000000000000000909416939093179092529051909150309061148e908390613779565b5f604051808303815f865af19150503d805f81146114c7576040519150601f19603f3d011682016040523d82523d5f602084013e6114cc565b606091505b509050809250505f82600184516114e39190613c2b565b815181106114f3576114f36135e0565b602001015160f81c60f81b7effffffffffffffffffffffffffffffffffffffffffffffffffffffffffffff1916600160f81b14905061153e836001855161153a9190613c2b565b9052565b801561154b5750506108b6565b61155483611caf565b505092915050565b5f5b818110156116eb5736838383818110611579576115796135e0565b905060200281019061158b9190613c3e565b905073ffffffffffffffffffffffffffffffffffffffff7f0000000000000000000000000000000000000000000000000000000000000000166115d16020830183613c7a565b73ffffffffffffffffffffffffffffffffffffffff160361164e576040517f08c379a000000000000000000000000000000000000000000000000000000000815260206004820152601b60248201527f475076323a20666f7262696464656e20696e746572616374696f6e000000000060448201526064016103f1565b61165781611fd4565b6116646020820182613c7a565b73ffffffffffffffffffffffffffffffffffffffff167fed99827efb37016f2275f98c4bcf71c7551c75d59e9b450f79fa32e60be672c282602001356116a98461201f565b604080519283527fffffffff0000000000000000000000000000000000000000000000000000000090911660208301520160405180910390a25060010161155e565b505050565b6060805f6116fc611cb7565b90508367ffffffffffffffff81111561171757611717613277565b60405190808252806020026020018201604052801561178657816020015b604080516080810182525f8082526020808301829052928201819052606082015282527fffffffffffffffffffffffffffffffffffffffffffffffffffffffffffffffff9092019101816117355790505b5092508367ffffffffffffffff8111156117a2576117a2613277565b60405190808252806020026020018201604052801561181157816020015b604080516080810182525f8082526020808301829052928201819052606082015282527fffffffffffffffffffffffffffffffffffffffffffffffffffffffffffffffff9092019101816117c05790505b5091505f5b848110156118d45736868683818110611831576118316135e0565b90506020028101906118439190613c95565b9050611851838c8c84611d5c565b6118cb838a8a8435818110611868576118686135e0565b905060200201358b8b8560200135818110611885576118856135e0565b905060200201358461012001358987815181106118a4576118a46135e0565b60200260200101518988815181106118be576118be6135e0565b6020026020010151612048565b50600101611816565b5050965096945050505050565b5f815167ffffffffffffffff8111156118fc576118fc613277565b60405190808252806020026020018201604052801561197257816020015b6040805160a0810182525f808252602080830182905292820181905260608201819052608082015282527fffffffffffffffffffffffffffffffffffffffffffffffffffffffffffffffff90920191018161191a5790505b5090505f805b8351811015611b97575f848281518110611994576119946135e0565b6020026020010151905073eeeeeeeeeeeeeeeeeeeeeeeeeeeeeeeeeeeeeeee73ffffffffffffffffffffffffffffffffffffffff16816020015173ffffffffffffffffffffffffffffffffffffffff1603611ac3577f4ac99ace14ee0a5ef932dc609df0943ab7ac16b7583634612f8dc35a4289a6ce816060015103611a76576040517f08c379a000000000000000000000000000000000000000000000000000000000815260206004820152601e60248201527f475076323a20756e737570706f7274656420696e7465726e616c20455448000060448201526064016103f1565b8051604080830151905173ffffffffffffffffffffffffffffffffffffffff9092169181156108fc0291905f818181858888f19350505050158015611abd573d5f803e3d5ffd5b50611b8e565b7f5a28e9363bb942b639270062aa6bb295f434bcdfc42c97267bf003f272060dc9816060015103611b2157805160408201516020830151611b1c9273ffffffffffffffffffffffffffffffffffffffff9091169161244f565b611b8e565b5f8484611b2d81613cc7565b955081518110611b3f57611b3f6135e0565b6020908102919091018101515f81528382015173ffffffffffffffffffffffffffffffffffffffff90811692820192909252604080850151908201523060608201528351909116608090910152505b50600101611978565b508015611c21578082526040517f0e8e3e8400000000000000000000000000000000000000000000000000000000815273ffffffffffffffffffffffffffffffffffffffff851690630e8e3e8490611bf3908590600401613cfe565b5f604051808303815f87803b158015611c0a575f80fd5b505af1158015611c1c573d5f803e3d5ffd5b505050505b50505050565b5f808060388414611c94576040517f08c379a000000000000000000000000000000000000000000000000000000000815260206004820152601160248201527f475076323a20696e76616c69642075696400000000000000000000000000000060448201526064016103f1565b5050823593602084013560601c936034013560e01c92509050565b805160208201fd5b60408051610200810182525f6080820181815260a0830182905260c0830182905260e08301829052610100830182905261012083018290526101408301829052610160830182905261018083018290526101a083018290526101c083018290526101e083018290528252606060208301819052928201819052918101919091526040805160388082526060820190925290602082018180368337505050602082015290565b83515f611d6b8386868561251f565b90505f80611d878484611d82610140890189613d96565b61264c565b91509150611daa82828660a001518b60200151612782909392919063ffffffff16565b73ffffffffffffffffffffffffffffffffffffffff81166040890152611dd084826127ff565b73ffffffffffffffffffffffffffffffffffffffff1660609098019790975250505050505050565b5f7f7fffffffffffffffffffffffffffffffffffffffffffffffffffffffffffffff821115611e83576040517f08c379a000000000000000000000000000000000000000000000000000000000815260206004820152601960248201527f53616665436173743a20696e74323536206f766572666c6f770000000000000060448201526064016103f1565b5090565b5f80821215611e83576040517f08c379a000000000000000000000000000000000000000000000000000000000815260206004820152601660248201527f53616665436173743a206e6f7420706f7369746976650000000000000000000060448201526064016103f1565b5f5b81811015611c2157365f848484818110611f1057611f106135e0565b9050602002810190611f229190613d96565b915091505f611f318383611c27565b92505050428163ffffffff1610611fa4576040517f08c379a000000000000000000000000000000000000000000000000000000000815260206004820152601760248201527f475076323a206f72646572207374696c6c2076616c696400000000000000000060448201526064016103f1565b5f878484604051611fb69291906136f9565b90815260405190819003602001902055505060019091019050611ef4565b5f611fe26020830183613c7a565b90506020820135365f611ff86040860186613d96565b91509150604051818382375f80838387895af1612017573d5f803e3d5ffd5b505050505050565b5f368161202f6040850185613d96565b90925090506004811061204157813592505b5050919050565b8551602087015160a08201514263ffffffff90911610156120c5576040517f08c379a000000000000000000000000000000000000000000000000000000000815260206004820152601360248201527f475076323a206f7264657220657870697265640000000000000000000000000060448201526064016103f1565b60808201516120d49087612830565b60608301516120e39089612830565b101561214b576040517f08c379a000000000000000000000000000000000000000000000000000000000815260206004820152601f60248201527f475076323a206c696d6974207072696365206e6f74207265737065637465640060448201526064016103f1565b5f805f807ff3b277728b3fee749481eb3e0b3b48980dbbab78658fc419025cb16eee3467758661010001510361227957856101200151156121b5578893506121ae86606001516121a8868960e0015161283090919063ffffffff16565b906128c5565b91506121c4565b856060015193508560e0015191505b6121d88a6121d2868e612830565b90612939565b9250612204846002876040516121ee9190613779565b90815260405190819003602001902054906129d2565b90508560600151811115612274576040517f08c379a000000000000000000000000000000000000000000000000000000000815260206004820152601260248201527f475076323a206f726465722066696c6c6564000000000000000000000000000060448201526064016103f1565b612350565b856101200151156122ad578892506122a686608001516121a8858960e0015161283090919063ffffffff16565b91506122bc565b856080015192508560e0015191505b6122ca8b6121a8858d612830565b93506122e0836002876040516121ee9190613779565b90508560800151811115612350576040517f08c379a000000000000000000000000000000000000000000000000000000000815260206004820152601260248201527f475076323a206f726465722066696c6c6564000000000000000000000000000060448201526064016103f1565b61235a84836129d2565b93508060028660405161236d9190613779565b9081526020016040518091039020819055508b6040015173ffffffffffffffffffffffffffffffffffffffff167fa07a543ab8a018198e99ca0184c93fe9050a79400a0a723441f84de1d972cc17875f015188602001518787878b6040516123da96959493929190613b8e565b60405180910390a250506040808b015173ffffffffffffffffffffffffffffffffffffffff9081168852855181166020808a0191909152888301949094526101408601516060988901529a8701518b16865282850151909a169185019190915297830197909752610160015191015250505050565b6040517fa9059cbb0000000000000000000000000000000000000000000000000000000080825273ffffffffffffffffffffffffffffffffffffffff8416600483015260248201839052905f8060448382895af16124af573d5f803e3d5ffd5b506124b984612a4a565b611c21576040517f08c379a000000000000000000000000000000000000000000000000000000000815260206004820152601560248201527f475076323a206661696c6564207472616e73666572000000000000000000000060448201526064016103f1565b5f83838635818110612533576125336135e0565b90506020020160208101906125489190613c7a565b73ffffffffffffffffffffffffffffffffffffffff16825283836020870135818110612576576125766135e0565b905060200201602081019061258b9190613c7a565b73ffffffffffffffffffffffffffffffffffffffff1660208301526125b66060860160408701613c7a565b73ffffffffffffffffffffffffffffffffffffffff16604083015260608086013590830152608080860135908301526125f560c0860160a08701613df7565b63ffffffff1660a083015260c0808601359083015260e08086013590830152612622610100860135612b10565b61016087019190915261014086019190915290151561012085015261010090930152509392505050565b7fffffffffffffffffffffffffffffffffffffffffffffffffffffffffffffffe0840180517fd5a25ba2e97094ad7d83dc28a6572da797d6b3e7fc6663bd93efb789fc17e48982526101a0822091526040517f190100000000000000000000000000000000000000000000000000000000000081527f000000000000000000000000000000000000000000000000000000000000000060028201526022810191909152604290205f808560038111156127075761270761381b565b0361271e57612717828585612c72565b9050612779565b60018560038111156127325761273261381b565b0361274257612717828585612c86565b60028560038111156127565761275661381b565b0361276657612717828585612ce9565b6127768285858960a00151612e2b565b90505b94509492505050565b60388451146127ed576040517f08c379a000000000000000000000000000000000000000000000000000000000815260206004820152601960248201527f475076323a2075696420627566666572206f766572666c6f770000000000000060448201526064016103f1565b60388401526034830152602090910152565b60408201515f9073ffffffffffffffffffffffffffffffffffffffff166128275750806108b6565b50506040015190565b5f825f0361283f57505f6108b6565b5f61284a83856137ce565b9050826128578583613e47565b146128be576040517f08c379a000000000000000000000000000000000000000000000000000000000815260206004820152601660248201527f536166654d6174683a206d756c206f766572666c6f770000000000000000000060448201526064016103f1565b9392505050565b5f80821161292f576040517f08c379a000000000000000000000000000000000000000000000000000000000815260206004820152601760248201527f536166654d6174683a206469766973696f6e206279203000000000000000000060448201526064016103f1565b6128be8284613e47565b5f8082116129a3576040517f08c379a000000000000000000000000000000000000000000000000000000000815260206004820152601f60248201527f536166654d6174683a206365696c696e67206469766973696f6e20627920300060448201526064016103f1565b6129ad8284613e5a565b156129b95760016129bb565b5f5b60ff166129c88385613e47565b6128be9190613e6d565b5f806129de8385613e6d565b9050838110156128be576040517f08c379a000000000000000000000000000000000000000000000000000000000815260206004820152601b60248201527f536166654d6174683a206164646974696f6e206f766572666c6f77000000000060448201526064016103f1565b5f612a86565b7f08c379a0000000000000000000000000000000000000000000000000000000005f52602060045280602452508060445260645ffd5b3d8015612ac55760208114612aff57612ac07f475076323a206d616c666f726d6564207472616e7366657220726573756c7400601f612a50565b612b0a565b823b612af657612af67f475076323a206e6f74206120636f6e74726163740000000000000000000000006014612a50565b60019150612b0a565b3d5f803e5f51151591505b50919050565b5f805f805f856001165f03612b47577ff3b277728b3fee749481eb3e0b3b48980dbbab78658fc419025cb16eee3467759450612b6b565b7f6ed88e868af0a1983e3886d5f3e95a2fafbd6c3450bc229e27342283dc429ccc94505b6002861615159350600886165f03612ba5577f5a28e9363bb942b639270062aa6bb295f434bcdfc42c97267bf003f272060dc99250612bfb565b856004165f03612bd7577fabee3b73373acd583a130924aad6dc38cfdc44ba0555ba94ce2ff63980ea06329250612bfb565b7f4ac99ace14ee0a5ef932dc609df0943ab7ac16b7583634612f8dc35a4289a6ce92505b856010165f03612c2d577f5a28e9363bb942b639270062aa6bb295f434bcdfc42c97267bf003f272060dc99150612c51565b7f4ac99ace14ee0a5ef932dc609df0943ab7ac16b7583634612f8dc35a4289a6ce91505b600586901c6003811115612c6757612c6761381b565b905091939590929450565b5f612c7e848484612f7d565b949350505050565b6040517f19457468657265756d205369676e6564204d6573736167653a0a3332000000006020820152603c81018490525f908190605c01604051602081830303815290604052805190602001209050612ce0818585612f7d565b95945050505050565b813560601c365f612cfd8460148188613e80565b6040517f1626ba7e0000000000000000000000000000000000000000000000000000000080825292945090925073ffffffffffffffffffffffffffffffffffffffff851690631626ba7e90612d5a908a9087908790600401613ea7565b602060405180830381865afa158015612d75573d5f803e3d5ffd5b505050506040513d601f19601f82011682018060405250810190612d999190613ec0565b7fffffffff000000000000000000000000000000000000000000000000000000001614612e22576040517f08c379a000000000000000000000000000000000000000000000000000000000815260206004820152601f60248201527f475076323a20696e76616c69642065697031323731207369676e61747572650060448201526064016103f1565b50509392505050565b5f60148314612e96576040517f08c379a000000000000000000000000000000000000000000000000000000000815260206004820152601c60248201527f475076323a206d616c666f726d6564207072657369676e61747572650000000060448201526064016103f1565b506040805160388082526060828101909352853590921c915f9190602082018180368337019050509050612ecc81878486612782565b7ff59c009283ff87aa78203fc4d9c2df025ee851130fb69cc3e068941f6b5e2d6f5f1c5f82604051612efe9190613779565b90815260200160405180910390205414612f74576040517f08c379a000000000000000000000000000000000000000000000000000000000815260206004820152601960248201527f475076323a206f72646572206e6f74207072657369676e65640000000000000060448201526064016103f1565b50949350505050565b5f60418214612fe8576040517f08c379a000000000000000000000000000000000000000000000000000000000815260206004820152601f60248201527f475076323a206d616c666f726d6564206563647361207369676e61747572650060448201526064016103f1565b604080515f815260208082018084528790528583013560f81c92820183905285356060830181905290860135608083018190529092909160019060a0016020604051602081039080840390855afa158015613045573d5f803e3d5ffd5b50506040517fffffffffffffffffffffffffffffffffffffffffffffffffffffffffffffffe0015194505073ffffffffffffffffffffffffffffffffffffffff84166130ed576040517f08c379a000000000000000000000000000000000000000000000000000000000815260206004820152601d60248201527f475076323a20696e76616c6964206563647361207369676e617475726500000060448201526064016103f1565b5050509392505050565b5f8083601f840112613107575f80fd5b50813567ffffffffffffffff81111561311e575f80fd5b6020830191508360208260051b8501011115613138575f80fd5b9250929050565b5f805f805f805f6080888a031215613155575f80fd5b873567ffffffffffffffff8082111561316c575f80fd5b6131788b838c016130f7565b909950975060208a0135915080821115613190575f80fd5b61319c8b838c016130f7565b909750955060408a01359150808211156131b4575f80fd5b6131c08b838c016130f7565b909550935060608a01359150808211156131d8575f80fd5b508801606081018a10156131ea575f80fd5b8091505092959891949750929550565b5f8083601f84011261320a575f80fd5b50813567ffffffffffffffff811115613221575f80fd5b602083019150836020828501011115613138575f80fd5b5f8060208385031215613249575f80fd5b823567ffffffffffffffff81111561325f575f80fd5b61326b858286016131fa565b90969095509350505050565b7f4e487b71000000000000000000000000000000000000000000000000000000005f52604160045260245ffd5b604051601f82017fffffffffffffffffffffffffffffffffffffffffffffffffffffffffffffffe016810167ffffffffffffffff811182821017156132eb576132eb613277565b604052919050565b5f82601f830112613302575f80fd5b813567ffffffffffffffff81111561331c5761331c613277565b61334d60207fffffffffffffffffffffffffffffffffffffffffffffffffffffffffffffffe0601f840116016132a4565b818152846020838601011115613361575f80fd5b816020850160208301375f918101602001919091529392505050565b5f6020828403121561338d575f80fd5b813567ffffffffffffffff8111156133a3575f80fd5b612c7e848285016132f3565b73ffffffffffffffffffffffffffffffffffffffff811681146133d0575f80fd5b50565b5f80604083850312156133e4575f80fd5b82356133ef816133af565b9150602083013567ffffffffffffffff81111561340a575f80fd5b613416858286016132f3565b9150509250929050565b5f81518084528060208401602086015e5f6020828601015260207fffffffffffffffffffffffffffffffffffffffffffffffffffffffffffffffe0601f83011685010191505092915050565b602081525f6128be6020830184613420565b5f806040838503121561348f575f80fd5b50508035926020909101359150565b5f805f805f606086880312156134b2575f80fd5b853567ffffffffffffffff808211156134c9575f80fd5b6134d589838a016130f7565b909750955060208801359150808211156134ed575f80fd5b6134f989838a016130f7565b90955093506040880135915080821115613511575f80fd5b5086016101608189031215613524575f80fd5b809150509295509295909350565b5f8060208385031215613543575f80fd5b823567ffffffffffffffff811115613559575f80fd5b61326b858286016130f7565b80151581146133d0575f80fd5b5f805f60408486031215613584575f80fd5b833567ffffffffffffffff81111561359a575f80fd5b6135a6868287016131fa565b90945092505060208401356135ba81613565565b809150509250925092565b5f602082840312156135d5575f80fd5b81516128be81613565565b7f4e487b71000000000000000000000000000000000000000000000000000000005f52603260045260245ffd5b5f8083357fffffffffffffffffffffffffffffffffffffffffffffffffffffffffffffffe1843603018112613640575f80fd5b83018035915067ffffffffffffffff82111561365a575f80fd5b6020019150600581901b3603821315613138575f80fd5b602080825282518282018190525f9190848201906040850190845b818110156136ed576136da83855173ffffffffffffffffffffffffffffffffffffffff8082511683528060208301511660208401525060408101516040830152606081015160608301525050565b928401926080929092019160010161368c565b50909695505050505050565b818382375f9101908152919050565b81835281816020850137505f602082840101525f60207fffffffffffffffffffffffffffffffffffffffffffffffffffffffffffffffe0601f840116840101905092915050565b602081525f612c7e602083018486613708565b5f81518060208401855e5f93019283525090919050565b5f6128be8284613762565b5f61378f8285613762565b92151560f81b83525050600101919050565b7f4e487b71000000000000000000000000000000000000000000000000000000005f52601160045260245ffd5b80820281158282048414176108b6576108b66137a1565b5f7f80000000000000000000000000000000000000000000000000000000000000008203613815576138156137a1565b505f0390565b7f4e487b71000000000000000000000000000000000000000000000000000000005f52602160045260245ffd5b8183525f60208085019450825f5b85811015613891578135613869816133af565b73ffffffffffffffffffffffffffffffffffffffff1687529582019590820190600101613856565b509495945050505050565b5f815180845260208085019450602084015f5b83811015613891578151875295820195908201906001016138af565b5f6101a0820160028c106138e1576138e161381b565b8b83526101a060208401528990526101c060058a901b830181019083018b5f5b8c811015613a11577ffffffffffffffffffffffffffffffffffffffffffffffffffffffffffffffe4086850301835281357fffffffffffffffffffffffffffffffffffffffffffffffffffffffffffffff618f3603018112613961575f80fd5b8e810190508035855260208101356020860152604081013560408601526060810135606086015260808101357fffffffffffffffffffffffffffffffffffffffffffffffffffffffffffffffe18236030181126139bc575f80fd5b0160208101903567ffffffffffffffff8111156139d7575f80fd5b8036038213156139e5575f80fd5b60a060808701526139fa60a087018284613708565b955050506020928301929190910190600101613901565b5050508281036040840152613a2781898b613848565b9050613a75606084018873ffffffffffffffffffffffffffffffffffffffff808251168352602082015115156020840152806040830151166040840152506060810151151560608301525050565b82810360e0840152613a87818761389c565b915050613a9d61010083018563ffffffff169052565b825173ffffffffffffffffffffffffffffffffffffffff908116610120840152602084015116610140830152604083015161016083015260608301516101808301529a9950505050505050505050565b5f6020808385031215613afe575f80fd5b825167ffffffffffffffff80821115613b15575f80fd5b818501915085601f830112613b28575f80fd5b815181811115613b3a57613b3a613277565b8060051b9150613b4b8483016132a4565b8181529183018401918481019088841115613b64575f80fd5b938501935b83851015613b8257845182529385019390850190613b69565b98975050505050505050565b5f73ffffffffffffffffffffffffffffffffffffffff808916835280881660208401525085604083015284606083015283608083015260c060a0830152613b8260c0830184613420565b604081525f613beb604083018587613708565b90508215156020830152949350505050565b73ffffffffffffffffffffffffffffffffffffffff83168152604060208201525f612c7e6040830184613420565b818103818111156108b6576108b66137a1565b5f82357fffffffffffffffffffffffffffffffffffffffffffffffffffffffffffffffa1833603018112613c70575f80fd5b9190910192915050565b5f60208284031215613c8a575f80fd5b81356128be816133af565b5f82357ffffffffffffffffffffffffffffffffffffffffffffffffffffffffffffffea1833603018112613c70575f80fd5b5f7fffffffffffffffffffffffffffffffffffffffffffffffffffffffffffffffff8203613cf757613cf76137a1565b5060010190565b602080825282518282018190525f919060409081850190868401855b82811015613d89578151805160048110613d3657613d3661381b565b85528087015173ffffffffffffffffffffffffffffffffffffffff908116888701528682015187870152606080830151821690870152608091820151169085015260a09093019290850190600101613d1a565b5091979650505050505050565b5f8083357fffffffffffffffffffffffffffffffffffffffffffffffffffffffffffffffe1843603018112613dc9575f80fd5b83018035915067ffffffffffffffff821115613de3575f80fd5b602001915036819003821315613138575f80fd5b5f60208284031215613e07575f80fd5b813563ffffffff811681146128be575f80fd5b7f4e487b71000000000000000000000000000000000000000000000000000000005f52601260045260245ffd5b5f82613e5557613e55613e1a565b500490565b5f82613e6857613e68613e1a565b500690565b808201808211156108b6576108b66137a1565b5f8085851115613e8e575f80fd5b83861115613e9a575f80fd5b5050820193919092039150565b838152604060208201525f612ce0604083018486613708565b5f60208284031215613ed0575f80fd5b81517fffffffff00000000000000000000000000000000000000000000000000000000811681146128be575f80fdfea2646970667358221220bb3965934bfcc12c2635d1ffcd145b0e6ffe92e16b77af6845c5ef0fe16611f064736f6c6343000819003360c0604052348015600e575f80fd5b50604051611427380380611427833981016040819052602b91603f565b336080526001600160a01b031660a052606a565b5f60208284031215604e575f80fd5b81516001600160a01b03811681146063575f80fd5b9392505050565b60805160a05161138861009f5f395f818161015901528181610216015261030201525f81816090015261026101526113885ff3fe608060405234801561000f575f80fd5b5060043610610034575f3560e01c80634817a286146100385780637d10d11f14610061575b5f80fd5b61004b610046366004610d70565b610076565b6040516100589190610e75565b60405180910390f35b61007461006f366004610e8e565b610249565b005b60603373ffffffffffffffffffffffffffffffffffffffff7f0000000000000000000000000000000000000000000000000000000000000000161461011c576040517f08c379a000000000000000000000000000000000000000000000000000000000815260206004820152601160248201527f475076323a206e6f742063726561746f7200000000000000000000000000000060448201526064015b60405180910390fd5b6040517f945bcec900000000000000000000000000000000000000000000000000000000815273ffffffffffffffffffffffffffffffffffffffff7f0000000000000000000000000000000000000000000000000000000000000000169063945bcec99061019a908c908c908c908c908c908c908c90600401610fb6565b5f604051808303815f875af11580156101b5573d5f803e3d5ffd5b505050506040513d5f823e601f3d9081017fffffffffffffffffffffffffffffffffffffffffffffffffffffffffffffffe01682016040526101fa919081019061118a565b905061023d73ffffffffffffffffffffffffffffffffffffffff7f000000000000000000000000000000000000000000000000000000000000000016833361032e565b98975050505050505050565b3373ffffffffffffffffffffffffffffffffffffffff7f000000000000000000000000000000000000000000000000000000000000000016146102e8576040517f08c379a000000000000000000000000000000000000000000000000000000000815260206004820152601160248201527f475076323a206e6f742063726561746f720000000000000000000000000000006044820152606401610113565b61032a73ffffffffffffffffffffffffffffffffffffffff7f00000000000000000000000000000000000000000000000000000000000000001683833361060a565b5050565b73eeeeeeeeeeeeeeeeeeeeeeeeeeeeeeeeeeeeeeee6103536040840160208501611216565b73ffffffffffffffffffffffffffffffffffffffff16036103d0576040517f08c379a000000000000000000000000000000000000000000000000000000000815260206004820181905260248201527f475076323a2063616e6e6f74207472616e73666572206e6174697665204554486044820152606401610113565b7f5a28e9363bb942b639270062aa6bb295f434bcdfc42c97267bf003f272060dc98260600135036104435761043e61040b6020840184611216565b82604085018035906104209060208801611216565b73ffffffffffffffffffffffffffffffffffffffff16929190610949565b505050565b6040805160018082528183019092525f91816020015b6040805160a0810182525f808252602080830182905292820181905260608201819052608082015282527fffffffffffffffffffffffffffffffffffffffffffffffffffffffffffffffff9092019101816104595790505090505f815f815181106104c6576104c6611231565b602002602001015190507fabee3b73373acd583a130924aad6dc38cfdc44ba0555ba94ce2ff63980ea0632846060013514610502576002610505565b60035b8190600381111561051857610518610efd565b9081600381111561052b5761052b610efd565b90525061053e6040850160208601611216565b73ffffffffffffffffffffffffffffffffffffffff166020808301919091526040808601359083015261057390850185611216565b73ffffffffffffffffffffffffffffffffffffffff908116606083015283811660808301526040517f0e8e3e8400000000000000000000000000000000000000000000000000000000815290861690630e8e3e84906105d690859060040161125e565b5f604051808303815f87803b1580156105ed575f80fd5b505af11580156105ff573d5f803e3d5ffd5b505050505050505050565b5f8267ffffffffffffffff81111561062457610624610b36565b60405190808252806020026020018201604052801561069a57816020015b6040805160a0810182525f808252602080830182905292820181905260608201819052608082015282527fffffffffffffffffffffffffffffffffffffffffffffffffffffffffffffffff9092019101816106425790505b5090505f805b848110156108b757368686838181106106bb576106bb611231565b60800291909101915073eeeeeeeeeeeeeeeeeeeeeeeeeeeeeeeeeeeeeeee90506106eb6040830160208401611216565b73ffffffffffffffffffffffffffffffffffffffff1603610768576040517f08c379a000000000000000000000000000000000000000000000000000000000815260206004820181905260248201527f475076323a2063616e6e6f74207472616e73666572206e6174697665204554486044820152606401610113565b7f5a28e9363bb942b639270062aa6bb295f434bcdfc42c97267bf003f272060dc98160600135036107bd576107b86107a36020830183611216565b86604084018035906104209060208701611216565b6108ae565b5f84846107c9816112f6565b9550815181106107db576107db611231565b602002602001015190507fabee3b73373acd583a130924aad6dc38cfdc44ba0555ba94ce2ff63980ea063282606001351461081757600161081a565b60035b8190600381111561082d5761082d610efd565b9081600381111561084057610840610efd565b9052506108536040830160208401611216565b73ffffffffffffffffffffffffffffffffffffffff166020808301919091526040808401359083015261088890830183611216565b73ffffffffffffffffffffffffffffffffffffffff908116606083015286166080909101525b506001016106a0565b508015610941578082526040517f0e8e3e8400000000000000000000000000000000000000000000000000000000815273ffffffffffffffffffffffffffffffffffffffff871690630e8e3e849061091390859060040161125e565b5f604051808303815f87803b15801561092a575f80fd5b505af115801561093c573d5f803e3d5ffd5b505050505b505050505050565b6040517f23b872dd0000000000000000000000000000000000000000000000000000000080825273ffffffffffffffffffffffffffffffffffffffff85811660048401528416602483015260448201839052905f80606483828a5af16109b1573d5f803e3d5ffd5b506109bb85610a28565b610a21576040517f08c379a000000000000000000000000000000000000000000000000000000000815260206004820152601960248201527f475076323a206661696c6564207472616e7366657246726f6d000000000000006044820152606401610113565b5050505050565b5f610a64565b7f08c379a0000000000000000000000000000000000000000000000000000000005f52602060045280602452508060445260645ffd5b3d8015610aa35760208114610add57610a9e7f475076323a206d616c666f726d6564207472616e7366657220726573756c7400601f610a2e565b610ae8565b823b610ad457610ad47f475076323a206e6f74206120636f6e74726163740000000000000000000000006014610a2e565b60019150610ae8565b3d5f803e5f51151591505b50919050565b5f8083601f840112610afe575f80fd5b50813567ffffffffffffffff811115610b15575f80fd5b6020830191508360208260051b8501011115610b2f575f80fd5b9250929050565b7f4e487b71000000000000000000000000000000000000000000000000000000005f52604160045260245ffd5b604051601f82017fffffffffffffffffffffffffffffffffffffffffffffffffffffffffffffffe016810167ffffffffffffffff81118282101715610baa57610baa610b36565b604052919050565b5f67ffffffffffffffff821115610bcb57610bcb610b36565b5060051b60200190565b73ffffffffffffffffffffffffffffffffffffffff81168114610bf6575f80fd5b50565b5f82601f830112610c08575f80fd5b81356020610c1d610c1883610bb2565b610b63565b8083825260208201915060208460051b870101935086841115610c3e575f80fd5b602086015b84811015610c63578035610c5681610bd5565b8352918301918301610c43565b509695505050505050565b80358015158114610c7d575f80fd5b919050565b5f60808284031215610c92575f80fd5b6040516080810181811067ffffffffffffffff82111715610cb557610cb5610b36565b6040529050808235610cc681610bd5565b8152610cd460208401610c6e565b60208201526040830135610ce781610bd5565b6040820152610cf860608401610c6e565b60608201525092915050565b5f82601f830112610d13575f80fd5b81356020610d23610c1883610bb2565b8083825260208201915060208460051b870101935086841115610d44575f80fd5b602086015b84811015610c635780358352918301918301610d49565b5f60808284031215610ae8575f80fd5b5f805f805f805f806101a0898b031215610d88575f80fd5b883560028110610d96575f80fd5b9750602089013567ffffffffffffffff80821115610db2575f80fd5b610dbe8c838d01610aee565b909950975060408b0135915080821115610dd6575f80fd5b610de28c838d01610bf9565b9650610df18c60608d01610c82565b955060e08b0135915080821115610e06575f80fd5b50610e138b828c01610d04565b9350506101008901359150610e2c8a6101208b01610d60565b90509295985092959890939650565b5f815180845260208085019450602084015f5b83811015610e6a57815187529582019590820190600101610e4e565b509495945050505050565b602081525f610e876020830184610e3b565b9392505050565b5f8060208385031215610e9f575f80fd5b823567ffffffffffffffff80821115610eb6575f80fd5b818501915085601f830112610ec9575f80fd5b813581811115610ed7575f80fd5b8660208260071b8501011115610eeb575f80fd5b60209290920196919550909350505050565b7f4e487b71000000000000000000000000000000000000000000000000000000005f52602160045260245ffd5b81835281816020850137505f602082840101525f60207fffffffffffffffffffffffffffffffffffffffffffffffffffffffffffffffe0601f840116840101905092915050565b5f815180845260208085019450602084015f5b83811015610e6a57815173ffffffffffffffffffffffffffffffffffffffff1687529582019590820190600101610f84565b5f61012080830160028b10610fcd57610fcd610efd565b8a84526020808501929092528890526101408084019160058a901b8501909101908a5f5b8b8110156110fe577ffffffffffffffffffffffffffffffffffffffffffffffffffffffffffffffec087850301855281357fffffffffffffffffffffffffffffffffffffffffffffffffffffffffffffff618e3603018112611051575f80fd5b8d01803585528381013584860152604080820135908601526060808201359086015260a0608080830135368490037fffffffffffffffffffffffffffffffffffffffffffffffffffffffffffffffe10181126110ab575f80fd5b90920185810192903567ffffffffffffffff8111156110c8575f80fd5b8036038413156110d6575f80fd5b82828901526110e88389018286610f2a565b9887019897505050928401925050600101610ff1565b50505083810360408501526111138189610f71565b915050611162606084018773ffffffffffffffffffffffffffffffffffffffff808251168352602082015115156020840152806040830151166040840152506060810151151560608301525050565b82810360e08401526111748186610e3b565b9150508261010083015298975050505050505050565b5f602080838503121561119b575f80fd5b825167ffffffffffffffff8111156111b1575f80fd5b8301601f810185136111c1575f80fd5b80516111cf610c1882610bb2565b81815260059190911b820183019083810190878311156111ed575f80fd5b928401925b8284101561120b578351825292840192908401906111f2565b979650505050505050565b5f60208284031215611226575f80fd5b8135610e8781610bd5565b7f4e487b71000000000000000000000000000000000000000000000000000000005f52603260045260245ffd5b602080825282518282018190525f919060409081850190868401855b828110156112e957815180516004811061129657611296610efd565b85528087015173ffffffffffffffffffffffffffffffffffffffff908116888701528682015187870152606080830151821690870152608091820151169085015260a0909301929085019060010161127a565b5091979650505050505050565b5f7fffffffffffffffffffffffffffffffffffffffffffffffffffffffffffffffff820361134b577f4e487b71000000000000000000000000000000000000000000000000000000005f52601160045260245ffd5b506001019056fea264697066735822122006f151169a7b5d5b04c1a8000207cd50fbf1a7cc686cae70ee6ce1ff6f7d970364736f6c63430008190033","linkReferences":{}},"methodIdentifiers":{"authenticator()":"2335c76b","domainSeparator()":"f698da25","filledAmount(bytes)":"2479fb6e","freeFilledAmountStorage(bytes[])":"ed9f35ce","freePreSignatureStorage(bytes[])":"a2a7d51b","getStorageAt(uint256,uint256)":"5624b25b","invalidateOrder(bytes)":"15337bc0","preSignature(bytes)":"d08d33d1","setPreSignature(bytes,bool)":"ec6cb13f","settle(address[],uint256[],(uint256,uint256,address,uint256,uint256,uint32,bytes32,uint256,uint256,uint256,bytes)[],(address,uint256,bytes)[][3])":"13d79a0b","simulateDelegatecall(address,bytes)":"f84436bd","simulateDelegatecallInternal(address,bytes)":"43218e19","swap((bytes32,uint256,uint256,uint256,bytes)[],address[],(uint256,uint256,address,uint256,uint256,uint32,bytes32,uint256,uint256,uint256,bytes))":"845a101f","vault()":"fbfa77cf","vaultRelayer()":"9b552cc2"},"id":1}